:020000040800F2
:10000000A0040020C1010008631100083F1000088F
:1000100061110008CD020008411400080000000032
:10002000000000000000000000000000F5110008C2
:10003000CF0200080000000065110008F711000859
:10004000DB010008DB010008DB010008DB01000820
:10005000DB010008DB010008DB010008DB01000810
:10006000DB010008DB010008DB010008DB01000800
:10007000DB010008DB010008DB010008DB010008F0
:10008000DB010008DB010008DB010008DB010008E0
:10009000DB010008DB010008DB010008DB010008D0
:1000A000DB010008DB010008DB010008DB010008C0
:1000B000DB010008DB010008DB010008DB010008B0
:1000C000DB010008DB010008DB010008DB010008A0
:1000D000DB010008DB010008DB010008DB01000890
:1000E000DB010008DB010008DB010008DB01000880
:1000F000DB010008DB010008DB010008DB01000870
:10010000DB010008DB010008DB010008DB0100085F
:10011000DB010008DB010008DB010008DB0100084F
:10012000DB010008DB010008DB010008DB0100083F
:10013000DB010008DB010008DB010008DB0100082F
:10014000DB010008DB010008DB010008DB0100081F
:10015000DB010008DB010008DB010008DB0100080F
:10016000DB010008DB010008DB010008DB010008FF
:10017000DB010008DB010008DB01000800000000D3
:10018000DB010008DB010008DB010008DB010008DF
:10019000DB010008DB010008DB010008DB010008CF
:1001A000DB010008DB010008DB010008DFF80CD0F0
:1001B00000F07AF80048004791150008A0040020DC
:1001C0000648804706480047FEE7FEE7FEE7FEE7F1
:1001D000FEE7FEE7FEE7FEE7FEE7FEE7991200080E
:1001E000AD0100082DE9F05F0546002092469B46D0
:1001F00088460646814640241BE02846414647463D
:10020000224600F041F853465A46C01A914110D395
:1002100011461846224600F028F82D1A67EB01080F
:100220004F4622460120002100F01FF817EB00097D
:100230004E41201EA4F10104DFDC484631462A4627
:100240004346BDE8F09FD2B201E000F8012B491E01
:10025000FBD270470022F6E710B513460A46044663
:100260001946FFF7F0FF204610BD202A04DB203A94
:1002700000FA02F1002070479140C2F1200320FAF9
:1002800003F3194390407047202A04DB203A21FAF7
:1002900002F00021704721FA02F3D040C2F120029F
:1002A0009140084319467047064C074D06E0E06848
:1002B00040F0010394E8070098471034AC42F6D3AD
:1002C000FFF778FF3416000854160008FEE7704761
:1002D00072B6FEE730B5D1E901231A43D1E90335FF
:1002E0002B431A434B690C681A438B691A43D1E9B3
:1002F0000735012C496A046807D01A432A436FF373
:100300000E040A43224302600AE024F4F8442B431B
:1003100021430B43416803606FF30E010A434260BF
:10032000002030BD426942EA41014161002070472E
:10033000F8B514460546D1E9000210438A686FF00B
:100340001F03C96803EB421242EA412108430090AF
:10035000286100F0A9F9064609E0601C07D024B125
:1003600000F0A2F9801BA04201D90320F8BDA869C2
:100370008006F2D40020F8BDF0B56FF00F05D1E98A
:10038000003405EB04145B1E23432E018C682F03FD
:1003900006EB042423434FEA054C0C8A8E8ACD6871
:1003A000097E4FF07F4E07EB04440CEB06560EEB34
:1003B0000161012A0CD082683F1107EB05352B4300
:1003C0002343334302F070420B43134383600FE037
:1003D0008768084A17402A03A2F580523243C5684D
:1003E0003A43234305F070450B432B438260C360BF
:1003F0000020F0BDFF0F0FFF2DE9F04186B0142162
:100400006846FFF727FF2B48016800294FD14FF0BE
:100410000108C0F8008028480024016841F001016B
:1004200001600068022500F0010005904FF63F00D2
:10043000CDE9000502AA03260C2782E8D000694610
:100440001E4800F047F802AA694682E8D000CDE9CC
:1004500000851B4800F03EF848F23310CDE9000556
:1004600002AA694682E8D000164800F033F84FF639
:100470008370CDE9000502AA694682E8D0001248DF
:1004800000F028F8C020CDE9000502AA694682E8FC
:10049000D0000E4800F01EF84CF20370CDE90005C4
:1004A00002AA694682E8D000094800F013F806B0B5
:1004B000BDE8F081000000203838024000140240FE
:1004C000000802400018024000100240001C0240D8
:1004D000000C02402DE9F84F00224FF001080325DF
:1004E0004FF00F0E0B6808FA02F42340A3426ED1BE
:1004F0004E68012E05D0022E03D0112E01D0122EEF
:1005000012D186684FEA420C05FA0CF7BE43CF6859
:1005100007FA0CF7374387604668A6430C79C4F3A3
:100520000014944034434460C668570005FA07FC41
:100530008C6826EA0C06BC403443C4604C68022C2C
:1005400001D0122C13D1D40800EB8404A346D4F8B4
:10055000209054074FEAD46A0EFA0AF629EA0609EF
:100560000E6906FA0AF646EA0906CBF82060046826
:100570000E7924EA0C0406F00306BE40264306600A
:100580004C68E4006FD53B4C266846F480462660F4
:10059000246822F0030604F480440094364C34446A
:1005A000A446D4F808489607360F0EFA06F7BC435F
:1005B000324FB84201D100272EE0314FB84201D16D
:1005C000012729E02F4FB84202D1022724E04AE058
:1005D0002D4FB84201D103271EE02C4FB84201D164
:1005E000042719E02A4FB84201D1052714E0294F0A
:1005F000B84201D106270FE0274FB84201D10727A3
:100600000AE0264FB84201D1082705E0244FB8423E
:1006100001D1092700E00A27B7402743CCF8087822
:10062000204E34684F689C43FF0300D51C43346060
:100630001C4E361D34684F689C43BF0300D51C43D5
:100640003460184E083634684F689C43FF0200D56A
:100650001C433460134E0C3634684F689C43BF0211
:1006600000D51C433460521C102AFFF43BAFBDE898
:10067000F88F000044380240003001400000024082
:100680000004024000080240000C0240001002403A
:100690000014024000180240001C024000200240EA
:1006A00000240240003C014001488068704700007F
:1006B0000800002002488168027811448160704778
:1006C000080000200B4810B5016841F4007101607A
:1006D000016841F480610160016841F4807101604A
:1006E000032000F061F8002000F006F800F024F884
:1006F000002010BD003C024070B50D4D04464FF483
:100700007A712878B1FBF0F00A490968B1FBF0F082
:1007100000F0BDFB48B9102C07D200222146501E24
:1007200000F022F800206C6070BD012070BD000058
:1007300008000020140000200A4808B5016841F4B0
:1007400080410160006800F4804000900548001F6F
:10075000016841F080510160006800F08050009015
:1007600008BD000044380240F0B40E4B1B680C4634
:10077000C3F30223C3F10705042D00D90425191D75
:10078000072901D2002300E0DB1E012606FA05F14D
:10079000491E214099409E40761E16403143F0BCD0
:1007A00000F060BE0CED00E0064900F007020868AA
:1007B0004FF6FF03184040EA0220034A1043086046
:1007C000704700000CED00E00000FA052DE9F84349
:1007D0001748016841F0805101600068154F00F032
:1007E0008050012600903E64FFF75EFF05464FF4FF
:1007F0007A78114C05E000BFFFF756FF401B4045DB
:100800000DD86068C003F7D57E64FFF74DFF05463D
:10081000464607E0FFF748FF401BB04202D90320DD
:10082000BDE8F88360688003F4D50020F8E7000095
:100830004038024000000E42007000402DE9F047B1
:100840000E46050065D0DFF81481D8F80000F7B235
:1008500000F00F00B04207D288F80070D8F800000E
:1008600000F00F00B04254D128683D4C810712D5EA
:10087000400703D5206840F4E05020602878000746
:1008800003D5206840F4604020602068A96820F00B
:10089000F000084320602878C0072DD030496868F0
:1008A0000839012812D0022813D0032811D0096872
:1008B000890700292DDA216821F003010143216015
:1008C000FFF7F2FE814641F2883A0EE0096889039B
:1008D000EFE709688901ECE7FFF7E6FEA0EB090105
:1008E000514502D90320BDE8F0872068696800F00F
:1008F0000C00B0EB810FEFD1D8F80010404601F0AA
:100900000F01B14207D90770006800F00F00B04234
:1009100001D00120E7E72878400705D52068E9687D
:1009200020F4E050084320602878000706D52068AE
:10093000296920F4604040EAC100206000F038F8E6
:100940002168084AC1F30311515CC8400649086098
:1009500006480068FFF7D0FE0020C4E7003C0240D4
:10096000083802401C160008140000200C0000206B
:100970000448054900680968044AC1F38221515CB2
:10098000C840704714000020083802402C160008A8
:100990000448054900680968044AC1F34231515CC2
:1009A000C840704714000020083802402C16000888
:1009B000154810B5006810F00C02144813D0144903
:1009C000042A0FD0082A0ED10F4C241F2268236856
:1009D00002F03F025B0207D52068C0F38810A0FB3D
:1009E000010106E0084610BD2168C1F38811A1FB92
:1009F00000010023FFF7F6FB2168C1F30141491C08
:100A00004900B0FBF1F010BD083802400024F400AA
:100A100040787D012DE9F84F04006ED02078DFF892
:100A20003C93C007A9F104054AD009F1040001680C
:100A3000C1F38101012908D00068C0F381000228B8
:100A40000AD1D9F80000400206D52868800337D5BE
:100A500060680028E1D033E06068B0F5803F10D0D6
:100A6000B0F5A02F286810D020F4803028602868C6
:100A700020F4802028606068A8B1FFF715FE0646C4
:100A80000DE0286840F48030F4E740F480202860CE
:100A9000F7E700BFFFF708FE801B642873D82868BB
:100AA0008003F7D50CE0FFF7FFFD064605E000BF29
:100AB000FFF7FAFD801B6428F0D828688003F7D47C
:100AC0002078DFF89C8280074FF0000A3ED5A348CB
:100AD000001D016811F00C0F08D00068C0F3810000
:100AE00002280BD1D9F80000400207D428688007FB
:100AF00016D5E068012800D112E02BE1E068B8B11A
:100B00000120C8F80000FFF7CFFD064605E000BF52
:100B1000FFF7CAFD801B0228C0D828688007F7D5D8
:100B20002868216920F0F80040EAC10028600DE043
:100B3000C8F800A0FFF7B8FD064604E0FFF7B4FDD3
:100B4000801B02281FD828688007F7D42078000768
:100B500022D5824E83486169703671B101210160EE
:100B6000FFF7A2FD074604E0FFF79EFDC01B022829
:100B700009D830688007F7D50EE0C0F800A0FFF76D
:100B800093FD074605E082E0FFF78EFDC01B0228BB
:100B90007DD830688007F7D42078400768D5DFF823
:100BA000BCB100270BF13C0BDBF80000C0000BD4FC
:100BB000DBF8001041F08051CBF80010DBF80000AA
:100BC000012700F080500090674E3068C00510D4B7
:100BD000306840F480703060FFF766FD009005E0FB
:100BE000FFF762FD0099401A022850D83068C0050E
:100BF000F6D55A4EA0686C3601280FD0052830680B
:100C000010D020F001003060306820F00400306027
:100C1000A068B8B1FFF748FD00900FE0306840F0E1
:100C20000100F4E740F004003060F7E7FFF73CFD17
:100C30000099411A41F28830814266D830688007B5
:100C4000F4D50EE0FFF730FD009007E0FFF72CFD34
:100C50000099411A41F28830814256D830688007A5
:100C6000F4D42FB1DBF8001021F08051CBF8001044
:100C7000A069C8B33949091D0968C1F38101022976
:100C80004AD00228504607D0C8F8600000E03CE097
:100C9000FFF70AFD04463BE04746C8F86000FFF74F
:100CA00003FD064605E000BFFFF7FEFC801B02289F
:100CB0002BD828688001F7D4D4E907010843A16A3A
:100CC0002A4A490802EB0141626A41EA821108435B
:100CD00094F82C1040EA0161C9F800100120386630
:100CE000FFF7E2FC044606E036E000BFFFF7DCFC5D
:100CF000001B022809D828688001F7D52CE000BF26
:100D0000FFF7D2FC001B022802D90320BDE8F88FB0
:100D100028688001F4D41FE00128F7D0D9F800003A
:100D2000E26900F48001914214D1226A00F03F018F
:100D300091420FD147F6C071626A0140914209D1D8
:100D4000A26A00F44031914204D1E16A00F070607F
:100D5000884201D00120D9E70020D7E704380240BB
:100D600000004742800E4742007000400000FFFF35
:100D700070B50D46040003D094F82C0010B107E0C4
:100D8000012070BD002084F82D00204600F011F8ED
:100D9000022084F82C00211D2068FFF79BFAD4E97B
:100DA00000022946FFF7E8FA012084F82C00002011
:100DB00070BDFFF721BB10B5044690F82C00022847
:100DC00009D0022084F82C002068FFF7ABFA01203C
:100DD00084F82C00002010BD10B590F82D40012C97
:100DE0000BD0012480F82D4090F82C40022C04D028
:100DF00090F82C40052C02D003E0022010BD012009
:100E000010BD2BB111F8014B02F8014B5B1EF8E746
:100E1000002180F82D10084610BD000070B5044672
:100E200090F82C000D4602280DD0022084F82C00EA
:100E30002068FFF77DFA2868022805D05FF00100DE
:100E400084F82C00002070BD0520F9E710B590F85B
:100E50002D40012C0BD0012480F82D4090F82C401F
:100E6000022C04D0052C04D0042C02D003E0022074
:100E700010BD012010BD2BB112F8014B01F8014B40
:100E80005B1EF8E7002180F82D10084610BD10B554
:100E9000401EB0F1807F01D3012010BD4FF0E0244F
:100EA00060610F21601700F0DDFA0020A0610720CB
:100EB0002061002010BD70B5040004D094F8390002
:100EC000002510B106E0012070BD84F8385020469E
:100ED00000F022F8242084F839002068C16821F449
:100EE0000051C160204600F0E5F92068016921F455
:100EF000904101612068416921F02A014161206827
:100F0000C16841F40051C160E563202084F83900D4
:100F100084F83A00002070BD10B586B00446142154
:100F20006846FFF797F914492068884221D1134891
:100F30000021026842F010020260006800F0100018
:100F400005900E481438026842F001020260006801
:100F500000F0010005904FF4C06000900220CDE940
:100F60000101032003900720049069460448FFF71D
:100F7000B1FA06B010BD0000001001404438024034
:100F8000000002402DE9F843044690F839001F465E
:100F900016460D46202850D1B5B1AEB194F83800B0
:100FA00001284AD0012084F838004FF00008C4F826
:100FB0003C80212084F83900FFF776FBA684814627
:100FC000E68484F8388026E00120BDE8F883E08CD0
:100FD000401EE084A0684B46B0F5805F4FF00002F1
:100FE0004FF080012046009703D000F0F7F9E8B9F0
:100FF0000DE000F0F3F9C8B928882168C0F30800B3
:101000004860206908B16D1C05E0AD1C03E0216853
:1010100015F8010B4860E08C0028D8D14B4600221F
:1010200040212046009700F0D9F908B10320CCE711
:10103000202084F839000020C7E70220C5E7FEE73A
:1010400000B587B01C216846FFF704F9164815491A
:1010500000F1080C016001214160002104221023ED
:101060008CE80E00402343619301C0E90631510230
:1010700001624900416249008162022007218DE836
:1010800007000621CDE90310059006906946064841
:10109000FFF76EFE08B1FFF71BF900F065F807B027
:1010A00000BD0000400100A02C0000201D4808B534
:1010B000016841F020010160016801F02001009108
:1010C000016841F080010160016801F08001009138
:1010D000016841F004010160016801F00401009120
:1010E000016841F040010160016801F04001009198
:1010F000016841F010010160016801F010010091E8
:10110000016841F008010160016801F008010091E7
:10111000016841F001010160006800F001000090E9
:1011200008BD0000303802400C4810B50A49016083
:101130004FF4E1314160002181600C22C160C0E9BF
:1011400004128161C161FFF7B6FE002803D0BDE83B
:101150001040FFF7BDB810BD001001406000002036
:10116000FEE7FEE7704700002DE9F8431F4C01251C
:101170000826C4E900560027C4E902574FF6FF7855
:101180002146424601F11000FFF748FE1848009042
:10119000401E0090FCD10220C4E900061349C4E9B6
:1011A0000257C146424601F11000FFF737FE032007
:1011B0004FF00408E76084E841010C494A4601F118
:1011C0001000FFF72BFE2420C4E90250C4E900867A
:1011D00006494A4601F11000FFF720FEBDE8F8433A
:1011E000024840F26A511030FFF7E5BD1C000020B4
:1011F000A08601007047FFF75DBA000070B592B09D
:1012000030216846FFF726F814210CA8FFF722F8D2
:101210001F480025016841F080510160006800F01E
:10122000805011901B48016841F440410160006802
:10123000022400F44040119001200090000401902D
:101240008001CDE906400F260896D820CDE9090493
:1012500004200B906846FFF7DDFB08B172B6FEE78D
:10126000FFF7B4FA08B172B6FEE74FF4A050CDE92B
:101270000E504FF48050CDE90C64109005210CA85D
:10128000FFF7DCFA002801D072B6FEE712B070BD9D
:1012900040380240007000400548016841F4700188
:1012A000016003494FF0006080390860704700001A
:1012B00088ED00E02DE9F041044600680169E2682C
:1012C00021F44051114301612169A068E26908439A
:1012D0006169114308432168CA6849F20C639A4363
:1012E0000243CA6020684169A26921F44071114338
:1012F0004161E069192764253226B0F5004F354A6F
:10130000354920684FF0000806D0884201D090424D
:1013100036D1FFF73DFB35E0884201D0904202D143
:10132000FFF736FB01E0FFF723FB61684A18A0FBDB
:10133000070148EB0803FEF755FF0146B0FBF5F047
:101340000201B1FBF5F06FF01803584301EB800088
:1013500006EBC000B0FBF5F000F0F80002EB400235
:10136000B1FBF5F0584301EB800006EBC000B0FB89
:10137000F5F000F00700216810448860BDE8F081B6
:10138000FFF7F6FA61688B0F8A00A0FB0701FEF7F2
:1013900029FF0146B0FBF5F06FF01802504301EB56
:1013A000800006EB0010B0FBF5F000F0F002B1FB9E
:1013B000F5F002EB0012B1FBF5F06FF018035843A3
:1013C00001EB800006EB0010B0FBF5F000F00F0021
:1013D000D1E7000000140140001001402DE9F04168
:1013E000984617460E460446069D1DE0681C1BD015
:1013F0002DB1FFF759F9A0EB0800A84214D92068D5
:10140000C16821F4D071C1602068416921F00101F7
:101410004161202084F8390084F83A00002084F8E3
:1014200038000320BDE8F0812068006836EA00003B
:1014300004D00020B842D9D00020F3E70120F9E71A
:10144000FEE700000FB4054B10B503A9044A02984B
:1014500000F027F810BC5DF814FB000079150008B7
:10146000180000200907090E002804DB00F1E02025
:1014700080F80014704700F00F0000F1E02080F8C1
:10148000141D704702E008C8121F08C1002AFAD1D3
:1014900070477047002001E001C1121F002AFBD1F4
:1014A00070472DE9F84F9946924688460546002731
:1014B00006E025280AD051464A4690476D1C7F1CFD
:1014C00028780028F5D13846BDE8F88F002315F8B4
:1014D000011F18462E2915D115F8011F04232A29AA
:1014E0000DD06FF02F022978A1F13004092C09D812
:1014F00000EB800002EB400008446D1CF3E758F855
:10150000040B6D1C2A78002ADDD0632A07D0732AC9
:101510000FD0104651464A4690477F1C2AE018F8E3
:10152000042B8DF8002000218DF801106E4601215A
:1015300003E058F8046B4FF0FF315A074FF00004F6
:1015400001D409E0641C84420BDA8C42FADB325D80
:10155000002AF7D105E0641C8C42FCDB305D0028DA
:10156000F9D1274404E016F8010B51464A4690474A
:10157000641EF8D26D1CA3E713B54FF6FF7301226A
:1015800069460248FFF7FEFC00981CBD6000002081
:101590001CB501208DF8000041208DF80400FFF7F4
:1015A00091F8FFF72BFEFFF781FDFFF749FDFFF7ED
:1015B000BBFD0FA0FFF746FF4FF05044012301AAE7
:1015C00021460E48FFF742FC0028F7D10CA0FFF798
:1015D00039FF01236A4621460848FFF7FDFB002832
:1015E000F7D19DF800100CA0FFF72CFFFEE70000DC
:1015F000446973506C61792121210A002C0000207C
:10160000577269746520746F2073756363657373B3
:1016100066756C2121210A0025630A000000000084
:101620000000000001020304060708090000000092
:101630000102030454160008000000201C000000F2
:1016400084140008701600081C00002084040000A8
:1016500094140008000000000000000001000000D9
:1016600010000000000000000024F4000000000052
:04000005080001AD41
:00000001FF
