:020000040800F2
:10000000C061001079020008133B00081B30000893
:10001000113B0008251600085D41000800000000A3
:10002000000000000000000000000000C101000806
:10003000AD1800080000000015020008A53C0008EB
:10004000930200089302000893020008930200083C
:10005000930200089302000893020008930200082C
:10006000930200089302000893020008930200081C
:10007000930200089302000893020008930200080C
:1000800093020008930200089302000893020008FC
:1000900093020008930200089302000893020008EC
:1000A00093020008930200089302000893020008DC
:1000B00093020008930200089302000893020008CC
:1000C00093020008930200089302000893020008BC
:1000D000930200083D4100089302000893020008C3
:1000E000930200089302000893020008930200089C
:1000F000930200089302000893020008930200088C
:10010000930200089302000893020008930200087B
:10011000930200089302000893020008930200086B
:10012000930200089302000893020008930200085B
:1001300093020008011900089302000893020008C6
:10014000930200089302000893020008930200083B
:10015000930200089302000893020008930200082B
:10016000930200089302000893020008930200081B
:1001700093020008930200089302000800000000A8
:1001800093020008930200089302000893020008FB
:1001900093020008930200089302000893020008EB
:1001A000930200089302000893020008DFF80CD0C5
:1001B00000F032FE0048004789B00008C06100101E
:1001C0002A4B19680868B0E8F04F80F30988BFF33C
:1001D0006F8F4FF0000080F311887047000000001F
:1001E00006480068006880F3088862B661B6BFF30D
:1001F0004F8FBFF36F8F00DF00BF00BF08ED00E03F
:10020000DFF80C00016841F470010160704700BF25
:1002100088ED00E0EFF30980BFF36F8F134B1A688E
:100220001EF0100F08BF20ED108A20E9F04F10607B
:1002300008B44FF0500080F31188BFF34F8FBFF325
:100240006F8F13F0BBFE4FF0000080F3118808BCE5
:1002500019680868B0E8F04F1EF0100F08BFB0EC46
:10026000108A80F30988BFF36F8F70470000001079
:10027000EFF30580704700000648804706480047B6
:10028000FEE7FEE7FEE7FEE7FEE7FEE7FEE7FEE746
:10029000FEE7FEE7613D0008AD0100082DE9F05FD3
:1002A0000546002092469B468846064681464024E5
:1002B0001BE0284641464746224600F0F4FA5346E2
:1002C0005A46C01A914110D311461846224600F0F2
:1002D000DBFA2D1A67EB01084F4622460120002168
:1002E00000F0D2FA17EB00094E41201EA4F10104E0
:1002F000DFDC484631462A464346BDE8F09F000011
:1003000000487047544E010810B50446FFF7F8FF47
:100310000068005D00F0010010BDA0F14101192945
:1003200000D82030704700000649074A086850434B
:1003300043F23902104408604008704701490860E0
:10034000704700000C0100106D4EC64110B5431AF5
:10035000934209D28318881803E010F8011D03F8AE
:10036000011D521EF9D210BD40EA01039B0703D0C4
:1003700009E008C9121F08C0042AFAD203E011F8E4
:10038000013B00F8013B521EF9D210BDD2B201E090
:1003900000F8012B491EFBD270470022F6E710B58A
:1003A00013460A4604461946FFF7F0FF204610BDE3
:1003B000421C10F8011B0029FBD1801A704710B5B0
:1003C000002200E0521C835C8C5CA34201D1002B14
:1003D000F8D1D8B2E1B2401A10BD30B504460020C1
:1003E000034600E05B1C934203D2E05CCD5C401B03
:1003F000F8D030BD034611F8012B00F8012B002A7C
:10040000F9D11846704730B505460020034600E094
:100410005B1C934205D2EC5CC85C201A01D1002C15
:10042000F6D130BD0FB400B58DB010A909900B9076
:1004300000914FF0FF300A9000200C900548069084
:10044000054807906A4609A80F9900F043FA0DB0D5
:100450005DF814FBF10800080F0900082DE9FF4FB3
:10046000087883B09946FF2805D0491C2D2804D070
:100470000024002008E000200BE00124F9E700EB55
:10048000800003EB4000491C0B78FF2BF7D104B12F
:10049000404200230293147819461D462D2C01D0AA
:1004A0002B2C04D1521C2D2C13D000240294AA46CC
:1004B0001478FF2C0FD00A25A3FB057801FB0581DA
:1004C0004FF0000C03FB0C11521CE3194AEB010125
:1004D000EEE70124EAE7814453EA010002D019F56E
:1004E000C87F06DA03980021C0E9001107B0BDE813
:1004F000F08F0025AE4E2F46DFF8B882184600F088
:100500004AFCCDE90001B9F1000002DAC9F10004AA
:1005100000E004460023A74A1AEB030B42EB045AFF
:1005200012E0E00707D02A4633463846414600F03D
:1005300051FB074688462A4633461046194600F0C6
:1005400049FB05460E466410002CEAD1DDE90001A6
:10055000B9F1000F5A46534606DA00F0ADFB3A46B1
:10056000434600F0A9FB05E000F034FB3A46434661
:1005700000F030FB029A0AB181F00041039AC2E90F
:100580000001B3E72DE9FF4F1F468DB0D7E90146C3
:100590004FF0FF382E2045464FF000090B90B96907
:1005A0006D1C0E988847396A824688470028F6D124
:1005B000BAF1FF3F0AD024F4D064002E11DDBAF165
:1005C0002B0F08D0BAF12D0F0BD102E0404611B02D
:1005D0008DE744F48064B9696D1C0E9888478246A3
:1005E000761E6946600501D52D2000E02B208DF890
:1005F000000001F1010B0DF1200809E0B9696D1C43
:100600000E98884782460F9844F40074761E056061
:10061000002E02DDBAF1300FF0D00B998A453ED1A1
:1006200044F0800406E00F99681CA9F1010944F424
:1006300000740860B9696D1C761E0E988847824662
:100640003028F0D02BE00B998A4505D1200603D441
:1006500044F08004761E18E0504603F067FF08B3AC
:100660000DF11301761E44F400748B4508D2AAF1F3
:1006700030000BF8010B200607D5A9F1010003E0BB
:10068000200602D409F101008146A00502D50F9988
:10069000681C0860B9696D1C0E9888478246002E58
:1006A000D1DC53E0002E51DDBAF1650F02D0BAF172
:1006B000450F4BD1A00549D5B9696D1C24F4407490
:1006C000761E0E9888478246002E0CDD2B2804D01B
:1006D000BAF12D0F07D144F48074B9696D1C0E98DE
:1006E00088478246761EE00501D52D2100E02B21AA
:1006F00008F8011BCDF82C8021E00DF12901761EB0
:1007000044F4007488450CD2AAF1300010F0FF00C8
:1007100088F8000002D10B99884509D908F1010831
:1007200006E0E00501D5244801E042F20F70814661
:10073000B9696D1C0E98884782460F980560002E97
:1007400004DD504603F0F2FE0028D6D1F9690E9878
:100750008847FF208BF8000088F8000000200690F2
:1007600007904B466A4608A906A8FFF777FEA00542
:1007700002D46FF001002AE714F0240F0AD0E0073A
:1007800014D1DDE906123868031D3B600068C0E93A
:1007900000120BE0DDE9060100F021FB0146E00755
:1007A00004D13868021D3A600068016028460EE7EF
:1007B000000014400000F03FF1D8FFFF70B5C1F316
:1007C0000A5201F000450024C1F3130140F2FF3347
:1007D00041F480119A4201DA002070BD40F23343A7
:1007E0009A42A2F2334203DC524200F05CF800E08D
:1007F00090402C43F1D0404270BD000030B5041E43
:1008000071F1000404DB4FF00044404264EB01014D
:10081000141E73F1000405DB1C464FF000435242E6
:1008200063EB04038B4208BF824230BD30B5041E27
:1008300071F1000404DB4FF00044404264EB01011D
:10084000141E73F1000405DB1C464FF000435242B6
:1008500063EB0403994208BF904230BD30B50B46AC
:10086000014600202022012409E021FA02F59D42E0
:1008700005D303FA02F5491B04FA02F52844151EB4
:10088000A2F10102F1DC30BD202A04DB203A00FA9B
:1008900002F1002070479140C2F1200320FA03F3D7
:1008A000194390407047202A04DB203A21FA02F0D5
:1008B0000021704721FA02F3D040C2F1200291409A
:1008C000084319467047000002681144137801601C
:1008D00018467047D16004495161044911620021F2
:1008E0001161114600F0BCBAC908000809030008EC
:1008F000426842B1016811F8013B23B1521EC0E9C0
:100900000012184670470121C160881E7047426876
:100910005AB1C368016843B983688B4205D0491E48
:10092000521CC0E90012002070474FF0FF307047A2
:100930000FB4002300B589B00CA900910B996FF09A
:100940000042CB601E4B06931E4B07930423CDE958
:1009500001321D4A089202466B460020FFF712FE44
:1009600009B05DF814FB70B586B006464FF0FF3055
:100970000091CDE90101002015460C460490324655
:10098000694604A8FFF7D4FF02460498211825B150
:1009900008B1084600E020462860049800280DD0E1
:1009A000002A02DD0098884208D0081B0094CDE997
:1009B00001043246694604A8FFF7BAFF06B070BDCD
:1009C000F10800080F0900080903000810B5141EFB
:1009D00073F1000408DA401C41F1000192185B41F8
:1009E0001A4301D120F0010010BD2DE9F04D9246CF
:1009F0009B4611B1B1FA81F202E0B0FA80F22032E6
:100A00009046FFF741FF04460F4640EA0A0041EADC
:100A10000B0153465A46084313D0114653EA0100CE
:100A200019D0C8F140025046FFF73DFF05460E467B
:100A3000504659464246FFF727FF084305D001209C
:100A400004E020463946BDE8F08D0020054346EA23
:100A5000E0762C4337430A986305E40AA0EB0800CC
:100A60000022FD0A44EA47540A3002D5002001461C
:100A7000E9E7010510196941DDE9084500196941F7
:100A8000BDE8F04DA2E72DE9FE4F804681EA030064
:100A9000C00F0C46009021F0004123F00045B8EB58
:100AA0000200A94105D24046214690461C460B460D
:100AB000024623F00040104347D0270DC7F30A0039
:100AC000C3F30A510290401A019040286BDAC3F335
:100AD000130040F4801B0098924620B10023D2EB13
:100AE000030A63EB0B0B01985946C0F140025046D4
:100AF000FFF7CAFE06460D4650465946019A00F0D9
:100B00009DF910EB08006141002487EA115284EA44
:100B1000E7731A4340D0009A62B3019A012A4FEA60
:100B2000075215DC001B61EB02014FF0004202EAA4
:100B30000752CDE90042001C41F5801132462B4698
:100B4000FFF753FF03B0BDE8F08F40462146F9E7B9
:100B5000001B61EB0201001C41F5801300185B4192
:100B60002018A2F5001747EB030140EAD570B6192B
:100B70006D4111E06D084FEA360645EAC0754FEA4F
:100B80000752001B61EB0201001C41F5801149086E
:100B90004FEA30000019514132462B4603B0BDE800
:100BA000F04FFFF713BF0098012240000023D0EB65
:100BB000020263EBE073009821464FEAE074B8EB61
:100BC000000061EB0401E9E783F000435BE781F09B
:100BD000004158E72DE9FE4F81EA030404F0004488
:100BE00021F0004100944FF0000B23F0004350EA45
:100BF00001045ED052EA03045BD0C3F30A54C1F38C
:100C00000A552C44A4F2F3340194A0FB0254C1F31E
:100C1000130141F48011C3F3130343F4801301FB68
:100C2000024400FB034E840A970A44EA815447EACF
:100C30008357A4FB076802958D0A05FB07854FEAD9
:100C4000932C04FB0C542705029D4FEA065847EAF3
:100C50001637B5EB08056EEB070C870E920E47EAC8
:100C6000811742EA8312A7FB0201B6EB0B0164EB8A
:100C700000042B0D43EA0C335E1844EB1C50DA469B
:100C80005146E7FB0201C5F313044FEA0B3343EA75
:100C900014534FEA0432019C43EA0603A4F10C0406
:100CA0000294009CCDE900B4FFF79FFE03B0BDE8BD
:100CB000F08F00200146F9E72DE9F04D81EA0304A9
:100CC00004F0004B21F0004514464FF0000A23F0D9
:100CD000004150EA050220D054EA01021DD0C5F3BC
:100CE0000A570246C5F31303C1F31300C1F30A56B2
:100CF00040F4801543F48013A7EB0608101BD6467A
:100D000008F2FD3873EB050002D308F1010801E099
:100D100092185B41B8F1000F03DA00200146BDE8EC
:100D2000F08D00204FF48011064684460EE0171B1C
:100D300073EB050705D3121B63EB050306434CEA6F
:100D4000010C49084FEA300092185B4150EA010754
:100D5000EDD152EA030012D082EA040083EA0501D1
:100D6000084305D0101BAB4106D20122002306E048
:100D700000224FF0004302E06FF0010253101AEB23
:100D800006004CEB085110EB0A0041EB0B01BDE8EB
:100D9000F04DFFF71BBE0EB540F233420292002227
:100DA000CDE900221346FFF720FE03B000BDC1F3DA
:100DB0000A52C1F3130140F2FF3341F480119A4209
:100DC00002DA00200146704740F233439A42A2F211
:100DD000334202DC5242FFF766BDFFF755BD01F01A
:100DE000004330B421F0004150EA010206D00A0D60
:100DF000A2F56072C1F31301002A02DC30BC0020AE
:100E00007047440F44EAC104C100E01830BC00EB55
:100E1000C25000F0BBB90000064C074D06E0E06888
:100E200040F0010394E8070098471034AC42F6D331
:100E3000FFF7C0F94450010884500108202A06DB5E
:100E4000CB17203A41FA02F043EAE07306E041FA98
:100E500002F3D040C2F12002914008431946704786
:100E60002DE9F34F8BB04FF0000801F10C000C4658
:100E70004FF0010B46460DF1080A0190626901210D
:100E800001989047051E2DD0252D2CD0216A88472A
:100E9000C0B16269012101989047216A8847002802
:100EA000F7D1411E62690198904700E0761CA16964
:100EB0000B988847216A88470028F7D1E1690B9889
:100EC0008847DBE7A1690B9888470746A84201D10C
:100ED000761CD3E7E1690B9888477F1C02D1B8F1F3
:100EE000000F6FD046E1002762693D463946019800
:100EF00090472A2804D16269012101989047012571
:100F0000DFF884926269012101989047A0F13001D5
:100F10000A290AD24F45E5DC07EB870100EB4107C0
:100F2000303FDFD445F01005ECE7E90601D46FF05F
:100F300000476C280AD04C2814D0682815D06A289D
:100F40000DD074281CD07A281AD01DE062690121C6
:100F5000019890476C2802D045F0040514E045F054
:100F600002050DE045F020050AE0626901210198C3
:100F70009047682802D045F0080505E045F4006573
:100F80006269012101989047C4E9015765283DD065
:100F900019DC58287AD00CDC452837D004DC252809
:100FA00026D0412831D131E046282FD047282CD1F6
:100FB0002CE05B2877D0612828D063287CD0642877
:100FC00023D15AE0D0E06F2848D008DC66281DD035
:100FD00067281BD0692821D06E2816D127E07028F9
:100FE00045D0732868D0752847D078280DD14DE0BA
:100FF000A1690B988847054625283FF469AFE16948
:101000000B9888476D1C3FF46AAFB3E023466A46ED
:101010006FF001000B99FFF7B5FA9EE045F0400034
:101020006060A80723464FF0000236D43EE0E80790
:101030007FF447AF2068011D21600068290501D5B4
:1010400006701BE7290701D5068017E7A90703D516
:10105000F117C0E9006111E706600FE745F04000B5
:101060006060A80723464FF0080216D41EE040F641
:101070000E0125EA0100606016E045F04000606066
:10108000A80723464FF00A0207D40FE045F04000BE
:101090006060A80708D5234610226FF001000B9965
:1010A000AFF3008059E007E0234610226FF0010003
:1010B0000B99AFF3008050E04FF000094F464B46CC
:1010C000632802D05B2806D040E0E80601D4012066
:1010D000A06001273AE062690121019890475E28EB
:1010E00005D14FF00109626949460198904721698D
:1010F00039B900210A46534643F82120491C0829E2
:10110000FADBB0B3216969B9C11700EBD1625311A1
:101110000AEB830122F01F02821A01200B68904023
:1011200003430B6062690121019890475D28E8D173
:10113000B9F1000F09D00020514651F82020D243C8
:1011400041F82020401C0828F7DB02AB224600971C
:101150006FF001000B99AFF3008000280CDA401CFF
:1011600008D1BBF1000F05D04FF0FF300DB0BDE846
:10117000F08FFFE74046F9E7E90701D108F10108E0
:1011800006444FF0000B79E6CCCCCC0C0029A8BF6C
:101190007047401C490008BF20F00100704710B4A0
:1011A000B0FA80FC00FA0CF050EA010404BF10BC55
:1011B000704749B1CCF1200421FA04F411FA0CF182
:1011C00018BF012121430843A3EB0C01CB1D4FEABB
:1011D00000614FEA102042BF002010BC704700EBB6
:1011E000C35010440029A4BF10BC7047401C4900E4
:1011F00008BF20F0010010BC704730B58C1810F803
:10120000012B12F00F0301D110F8013B120906D196
:1012100010F8012B03E010F8015B01F8015B5B1E85
:10122000F9D101E001F8013B521EFBD1A142E6D306
:10123000002030BD7CB500220A21042013F020F8E4
:10124000264CE06010B126A003F056F802F096FD9F
:101250000AF04EFC40F25B722AA137A003F04CF872
:101260003FA14AA003F048F84EA153A003F044F870
:1012700057A162A003F040F866A173A003F03CF808
:1012800076A17AA003F038F812F0CAFB13490120C6
:10129000091D4502CDE9000100232A467AA17D48B7
:1012A00013F09CFA012802D17BA003F025F80B492A
:1012B00002200831CDE9000100232A467EA18148A1
:1012C00013F08CFA012802D17FA003F015F82068F2
:1012D00012F022FDBDE87C4012F0DCBB00000020D3
:1012E000B4B4BDA84D5154545F446174615F5175ED
:1012F000657565CFFBCFA2B6D3C1D0B3C9B9A6215E
:101300000D0A0000613176594D435337454B372E56
:10131000696F742D61732D6D7174742E636E2D73EE
:1013200068616E676861692E616C6979756E637357
:101330002E636F6D00000000B0A2C0EFD4C6D3F2E0
:10134000C3FB2F4950B5D8D6B7203A2025732009C2
:1013500020B6CBBFDABAC5203A202564200A0A009D
:10136000463432393030317C7365637572656D6F28
:1013700064653D332C7369676E6D6574686F643D99
:10138000686D6163736861317C000000B0A2C0EFDA
:10139000D4C6434C49454E545F4944203A202573F6
:1013A0000A0A00004634323930303126613176592C
:1013B0004D435337454B3700B0A2C0EFD4C6555309
:1013C00045525F4E414D45203A2025730A0A0000E0
:1013D000384532414636383230463246314435316E
:1013E0003944463746364437364143373638453632
:1013F000423044363536323500000000B0A2C0EF2E
:10140000D4C650415353574F5244203A2025730AB3
:101410000A0000002F7379732F613176594D4353C1
:1014200037454B372F463432393030312F746869A5
:101430006E672F736572766963652F70726F706562
:101440007274792F73657400B0A2C0EFD4C6544F84
:10145000504943203A2025730A0A000074657374CA
:101460005F6D65737361676500000000B0A2C0EF37
:10147000D4C6544553545F4D455353414745203AD4
:101480002025730A0A00000054657374315F5461AB
:10149000736B0000713E00084372656174652054EF
:1014A000657374315F5461736B2073756365737317
:1014B0002E2E2E0D0A00000054657374325F5461A5
:1014C000736B00007D3E00084372656174652054B3
:1014D000657374325F5461736B20737563657373E6
:1014E0002E2E2E0A0A000000F0B589B0324800F016
:1014F0004FFB32480024016841F4807101600068AC
:101500000125022600F480700790CDE904562C4F87
:10151000039502A93846029600F094FF00220221AA
:10152000384601F079F8052000F0AAFA01220221DC
:10153000384601F071F8052000F0A2FA2148016850
:1015400041F0010101608DF800608DF801401A48FA
:101550008DF802408DF804408DF803408DF8054069
:101560001949C0E9001504826946C0E90515E90575
:10157000C0E9074149128160C910C16000F0A6FBB3
:10158000040012A014D002F0B7FE14A002F0B4FEC2
:101590000823194A1949084800F0BEFA184A0823D6
:1015A000A2F50071044800F07DFA09B02046F0BDB4
:1015B00002F0A2FE13A0E9E73C000220303802400E
:1015C0000020024000900240008002400D0A5B446F
:1015D000454255475D203E3E20000000657468206E
:1015E000686172647761726520696E6974206661F2
:1015F000696C642E2E2E0A002432022084010220FF
:101600008402022065746820686172647761726583
:1016100020696E6974207375636573732E2E2E0AAC
:1016200000000000FEE70000F8B5694630A00AF0AF
:10163000F3FC684607F05EFC07463AA002F05CFE49
:101640003A462BA13BA002F057FE424C40F25B759C
:1016500034A002F051FE40A002F04EFE31A002F094
:101660004BFE2A46394645A002F046FE40F6B83603
:101670002946384611F066FC6060002829A013DB7B
:1016800002F03AFE46A002F037FE26A002F034FE39
:1016900049A002F031FE02F0C9F8002821A00CD0C8
:1016A00002F02AFE4CA018E002F026FE53A002F041
:1016B00023FE304612F0F8FADAE702F01DFE5BA0D6
:1016C00002F01AFE01225EA1606802F031F80028E3
:1016D00014A007DA02F010FE66A002F00DFE11F071
:1016E00013FCB5E702F008FE68A002F005FEF8BDA5
:1016F000613176594D435337454B372E696F742D01
:1017000061732D6D7174742E636E2D7368616E67D5
:101710006861692E616C6979756E63732E636F6D94
:10172000000000000D0A5B44454255475D203E3EE7
:1017300020000000686F7374206E616D65203A2090
:101740002573202C20686F73745F6970203A202500
:10175000730A0000EC000010312EBFAACABCC1AC55
:10176000BDD3B6D4D3A6D4C6C6BDCCA8B5C4B7FE27
:10177000CEF1C6F72E2E2E0A00000000B7FECEF1E5
:10178000C6F74950B5D8D6B7A3BA2573A3ACB6CB24
:10179000BFDABAC5A3BA253064A3A10A00000000CD
:1017A000C1ACBDD3D4C6C6BDCCA8B7FECEF1C6F77A
:1017B000B3C9B9A6A3A10A00322E4D515454D3C3C4
:1017C000BBA7C3FBD3EBC3DCD4BFD1E9D6A4B5C759
:1017D000C2BC2E2E2E0A00004D515454D3C3BBA7B9
:1017E000C3FBD3EBC3DCD4BFD1E9D6A4B5C7C2BC1D
:1017F000CAA7B0DC2E2E2E0A00000000C1ACBDD35B
:10180000D4C6C6BDCCA8B7FECEF1C6F7CAA7B0DC19
:10181000A3ACB5C8B4FD33C3EBD4D9B3A2CAD4D6F4
:10182000D8D0C2C1ACBDD3A3A10A0000332EBFAA39
:10183000CABCB6A9D4C4CFFBCFA22E2E2E0A00005C
:101840002F7379732F613176594D435337454B3799
:101850002F463432393030312F7468696E672F73F8
:101860006572766963652F70726F70657274792F17
:1018700073657400BFCDBBA7B6CBB6A9D4C4CFFBEC
:10188000CFA2CAA7B0DC2E2E2E0A0000342EBFAA8B
:10189000CABCD1ADBBB7BDD3CAD5B6A9D4C4B5C433
:1018A000CFFBCFA22E2E2E0A0000000070470000B2
:1018B000064908B509684FF4FA52B1FBF2F1414309
:1018C000009100BF491E0091FBD208BD1C00002002
:1018D00038B50446006800F58050816941F48011F4
:1018E0008161206800F58050806900900120FFF739
:1018F000DFFF2068009900F58050816138BD00004D
:1019000010B55020EFF3118480F31188BFF34F8F8F
:10191000BFF36F8F024800F09CF984F3118810BD6B
:101920003C0002202DE9F041044621B14FF4006053
:10193000E060C000A060E0690025002861D0284672
:101940002368402619683A4A1140D4E902273A43ED
:10195000024342F4007008431860206807680120C1
:1019600000F08EF8206807602068466020684668AE
:10197000012000F085F820684660206885602068B6
:10198000C560216888694FF64172104040F08000C0
:10199000886120688669012000F072F820688661FD
:1019A0002068C5612068C569012000F069F82068D9
:1019B000C561226802F5805290691E4908401E499F
:1019C00001439161206800F580508569012000F095
:1019D00057F8206800F5805085612068174900F5A8
:1019E00080500160206800F580500568012000F0FB
:1019F00047F8206800F580500560A069012803D0F1
:101A000009E04FF480609BE7206800F58050C169D1
:101A10000B4A1143C16160690A4982880A640278ED
:101A2000D0F8010042EA00204864BDE8F0810000DF
:101A30000F8120FF233FDEF8040020028020C10236
:101A4000400001000080024072B6FEE702490888AB
:101A5000421C0A8070470000EC00001090F835101E
:101A6000022903D08021416501207047052180F8BB
:101A700035100068016821F0010101600020704705
:101A800070B5044600F0CEFD0546601C02D0044847
:101A90000078044400F0C6FD401BA042FAD370BD9C
:101AA000100000202DE9F04390F845400025012C5E
:101AB0000DD04FF0010C80F845C0022480F844405E
:101AC00044F2F4574FF000495E1E816217E0022095
:101AD000BDE8F08301EB4514C4F80090C5EBC518D0
:101AE00008EB480802EB8808C4E90178B54204D243
:101AF00004F12008C4F80C8000E0E1606D1C9D42F8
:101B0000E8D3026802F58052D16080F844C0002119
:101B100080F845100846DBE72DE9F043914690F840
:101B200045200024012A0AD0012680F845600222BF
:101B300080F844204FF4801C5D1EC1621BE002202F
:101B4000BDE8F08301EB4412C2F800C0C4EBC41737
:101B500007EB470809EB88079760C7691FB9176843
:101B600047F440071760AC4203D202F12007D76068
:101B700000E0D160641C9C42E4D3026802F580520C
:101B8000116180F84460002180F845100846D7E7CD
:101B900010B50446022084F84400204600F08AF97B
:101BA000002004F8440F607010BD000010B504A0C0
:101BB00002F0A2FBBDE8104004A002F09DBB0000B3
:101BC0000D0A5B4552525D203E3E20006574682040
:101BD0006572720A0000000010B590F845100129E6
:101BE00013D0012280F84520022180F84410816A38
:101BF0000C680023002C27DB0C68E40518D5846BE7
:101C0000641C8463012C02D002E0022010BD016339
:101C100041630C68C4F30D44241FC463046BA468BF
:101C20000464C96840F8281F02774377002010BD7C
:101C30000C68A40503D58263C0E90C1302E0846B31
:101C4000641C8463C968816200F8442F43700120DA
:101C500010BD70B50446006800F5805041694FF032
:101C6000000549064FF0010608D5204600F008FAA5
:101C70002068402100F58050416109E04069C007BB
:101C80000AD0204600F0DAFA206800F5805046615C
:101C900084F8446084F8455020684FF4803100F5A2
:101CA00080504161206800F58050406900040CD5E7
:101CB0002046FFF77BFF20684FF4004100F580507D
:101CC000416184F8446084F8455070BD2DE9FC47BB
:101CD0004FF000060400B146009603D094F844008B
:101CE00018B107E00120BDE8FC8784F84560204674
:101CF00000F014F96548016841F480410160006812
:101D000000F4804001906248016821F40001016004
:101D10000168226A11430160206800F58050016863
:101D200041F00101016000F07DFC05464FF4FA77B7
:101D300009E000BF00F076FC401BB84203D9032045
:101D400004F8440F67E0206800F580500068C00781
:101D5000F0D12068006920F01C0500F0D5FD4D4948
:101D60004D4A0144914202D245F0080516E04B4924
:101D70004B4A0144914202D245F00C050EE049491C
:101D8000494A0144914209D3484908444849884294
:101D900002D245F0040501E045F010052068056118
:101DA0004FF400420021204600F04AFA0125A8BB6A
:101DB0000520FFF765FE606888B300F033FC8046BD
:101DC00041F288376A460121204600F017F900F0F9
:101DD00029FCA0EB0800B84217D800984007F1D5BD
:101DE0004FF480520021204600F02AFAB0B900F0EA
:101DF00019FC80466A460121204600F0FFF800F0F9
:101E000011FCA0EB0800B8420AD901212046FFF7D7
:101E100089FD04F8445F0320667064E724E018E05D
:101E200000988006E6D56A461F21204600F0E6F8B5
:101E3000D0B90098C10603D54FF40061E16000E01D
:101E4000E660400701D5A66018E04FF48040A0602E
:101E500014E0E068A168C00840EA510082B20021A5
:101E6000204600F0EDF930B101212046FFF75AFD80
:101E700084F8445036E70520FFF702FE4946204625
:101E8000FFF750FD84F8445000202CE7443802400E
:101E90000438014000D3CEFEC0E1E40040F1E9FD8A
:101EA00040787D0100796CFC005A6202001F0AFA3A
:101EB00080F0FA0210B500681249884220D1124819
:101EC000016821F080610160016821F0006101601A
:101ED000016821F00071016032210C4800F0ECF93A
:101EE00086210B4800F0E8F94FF40061094800F042
:101EF000E3F9BDE810404FF4C041074800F0DCB9F9
:101F000010BD00000080024030380240000802404E
:101F10000000024000040240001802402DE9F04198
:101F20000068304986B0884259D12F4C4FF00008E4
:101F3000206840F002002060206800F00200059058
:101F4000206840F0400020602068022500F040003A
:101F5000059032208DE8210103260B27694623488E
:101F6000CDE9036700F06EFA86208DE8210169460D
:101F70001F48CDE9036700F065FAE0148DE8210100
:101F800069461C48CDE9036700F05CFA70038DE8F0
:101F9000210169461848CDE9036700F053FA002291
:101FA00006213D2000F0ACFB3D2000F09BFB2068AB
:101FB00040F000702060206800F0007005902068FC
:101FC00040F080602060206800F08060059020680C
:101FD00040F000602060206800F00060059006B0CE
:101FE000BDE8F08100800240303802400008024025
:101FF0000000024000040240001802402DE9F047B2
:10200000044690F84400914682281DD0822084F82E
:102010004400226810694FF6FF7500F01C03208A07
:1020200005EAC02018434FF4F86303EA8111014325
:1020300021F0020040F00105156100F0F3FA0646B8
:1020400001274FF4803810E00220BDE8F08700BF80
:1020500000F0E8FA801B404505D304F8447F0020D7
:1020600060700320F1E720680569E807F0D1206877
:10207000406981B2C9F8001084F844700020E4E798
:1020800008B50020009008486946006812F004FB7B
:102090000098002807D005494FF080500860BFF332
:1020A0004F8FBFF36F8F08BDC000001004ED00E03C
:1020B000F8B5044690F84500012839D0012584F888
:1020C0004550022084F8440020680026016841F051
:1020D000080101602068006800902846FFF7E8FBCF
:1020E0002168009808602068016841F004010160DF
:1020F0002068006800900120FFF7DAFB2168009853
:1021000008602046FFF7E4FB206800F580508169F5
:1021100041F400518161206800F58050816941F0EF
:102120000201816184F8445084F845600020F8BDC4
:102130000220F8BDF0B590F845200023012A11D007
:10214000012780F84570022280F84420002459B10C
:10215000C66A3268002A0ADA122100F8441F447065
:102160000120F0BD0220F0BD00F8447FF7E740F207
:10217000F455A9420BD9B1FBF5FCB1FBF5F205FB17
:102180001C1CBCF1000F00D0521C012A43D1326844
:1021900042F040523260C26AC1F30C015160C16A20
:1021A0000A6842F000420A60C16AC968C16234E04C
:1021B000D6F800C02CF0405CC6F800C033B9C66A3F
:1021C000D6F800C04CF0805CC6F800C0C66A7560E6
:1021D000561EB34214D1C66AD6F800C04CF0005C5B
:1021E000C6F800C0C2F10106C6EBC61606EB4606ED
:1021F000D0F82CC001EB8606C6F30C06CCF80460C0
:10220000C66AD6F800C04CF0004CC6F800C0C66ADA
:102210005B1CF668C6629342CAD3016801F580511F
:102220004A69520705D504224A61016801F58051C7
:102230004C6000F8447F44700020F0BD70470000FF
:102240002DE9F041044690F8440042281ED0422077
:1022500084F84400236818694FF6FF7600F01C05E7
:10226000208A06EAC02028434FF4F86505EA811168
:10227000014390B241F0030558612068056100F008
:10228000D1F9064601274FF4803810E00220BDE85E
:10229000F08100BF00F0C6F9801B404505D304F86B
:1022A000447F002060700320F1E720680569E8079B
:1022B000F0D184F84470EAE72DE9F04F0022DFF80E
:1022C00054B101264FF00F0906FA02F401EA0403A3
:1022D000A3427DD122F003075F44D7F808C89507D1
:1022E0004FEA157809FA08FA0AEA0C05DFF828C15E
:1022F000604502D14FF0000C40E0DFF820C160459E
:1023000002D14FF0010C39E0DFF814C1604502D171
:102310004FF0020C32E0DFF80CC1604502D14FF003
:10232000030C2BE0DFF800C1604502D14FF0040C34
:1023300024E0DFF8F8C0604502D14FF0050C1DE045
:10234000DFF8ECC0604502D14FF0060C16E0DFF874
:10235000E4C0604502D14FF0070C0FE0DFF8D8C0B1
:10236000604502D14FF0080C08E0DFF8D0C06045AE
:1023700002D14FF0090C01E04FF00A0C0CFA08FCF6
:10238000AC4522D12E4DD5F800C02CEA030CC5F87F
:1023900000C005F1040CDCF800509D43CCF800505F
:1023A0000CF10405D5F800C02CEA030CC5F800C0F8
:1023B0002D1DD5F800C02CEA030CC5F800C0D7F8D5
:1023C000085825EA0A05C7F808580568570000E0CC
:1023D0001AE00323BB409D430560D50800EB85054B
:1023E000D5F820C057074FEAD76809FA08F72CEA52
:1023F000070CC5F820C0C5689D43C5604568A54366
:10240000456084689C438460521C102AFFF45CAFD2
:10241000BDE8F08F0030014000000240000402409F
:1024200000080240000C024000100240001402406C
:1024300000180240001C024000200240002402401C
:10244000003C01402DE9F84F00224FF00108032520
:102450004FF00F0E0B6808FA02F42340A3426ED12E
:102460004E68012E05D0022E03D0112E01D0122E5F
:1024700012D186684FEA420C05FA0CF7BE43CF68CA
:1024800007FA0CF7374387604668A6430C79C4F314
:102490000014944034434460C668570005FA07FCB2
:1024A0008C6826EA0C06BC403443C4604C68022C9D
:1024B00001D0122C13D1D40800EB8404A346D4F825
:1024C000209054074FEAD46A0EFA0AF629EA060960
:1024D0000E6906FA0AF646EA0906CBF82060046897
:1024E0000E7924EA0C0406F00306BE40264306607B
:1024F0004C68E4006FD53B4C266846F48046266065
:10250000246822F0030604F480440094364C3444DA
:10251000A446D4F808489607360F0EFA06F7BC43CF
:10252000324FB84201D100272EE0314FB84201D1DD
:10253000012729E02F4FB84202D1022724E04AE0C8
:102540002D4FB84201D103271EE02C4FB84201D1D4
:10255000042719E02A4FB84201D1052714E0294F7A
:10256000B84201D106270FE0274FB84201D1072713
:102570000AE0264FB84201D1082705E0244FB842AF
:1025800001D1092700E00A27B7402743CCF8087893
:10259000204E34684F689C43FF0300D51C433460D1
:1025A0001C4E361D34684F689C43BF0300D51C4346
:1025B0003460184E083634684F689C43FF0200D5DB
:1025C0001C433460134E0C3634684F689C43BF0282
:1025D00000D51C433460521C102AFFF43BAFBDE809
:1025E000F88F0000443802400030014000000240F3
:1025F0000004024000080240000C024000100240AB
:102600000014024000180240001C0240002002405A
:1026100000240240003C01400AB181617047090476
:10262000FBE70000014880687047000010000020B0
:1026300002488168027811448160704710000020D0
:102640000B4810B5016841F400710160016841F464
:1026500080610160016841F480710160032000F035
:102660006FF8002000F006F800F024F8002010BDFC
:10267000003C024070B50D4D04464FF47A71287845
:10268000B1FBF0F00A490968B1FBF0F000F04EFB35
:1026900048B9102C07D200222146501E00F030F815
:1026A00000206C6070BD012070BD00001000002093
:1026B0001C0000200A4808B5016841F4804101600F
:1026C000006800F4804000900548001F016841F058
:1026D00080510160006800F08050009008BD00004B
:1026E00044380240002809DB00F01F02012191401C
:1026F0004009800000F1E020C0F8001170470000A0
:10270000F0B40E4B1B680C46C3F30223C3F107055C
:10271000042D00D90425191D072901D2002300E04A
:10272000DB1E012606FA05F1491E214099409E4014
:10273000761E16403143F0BC01F002BE0CED00E005
:10274000064900F0070208684FF6FF03184040EA08
:102750000220034A10430860704700000CED00E0BF
:102760000000FA052DE9F8431748016841F080514F
:1027700001600068154F00F08050012600903E6413
:10278000FFF750FF05464FF47A78114C05E000BF83
:10279000FFF748FF401B40450DD86068C003F7D5E0
:1027A0007E64FFF73FFF0546464607E0FFF73AFF26
:1027B000401BB04202D90320BDE8F8836068800363
:1027C000F4D50020F8E700004038024000000E4237
:1027D000007000402DE9F0470E46050065D0DFF897
:1027E0001481D8F80000F7B200F00F00B04207D211
:1027F00088F80070D8F8000000F00F00B04254D103
:1028000028683D4C810712D5400703D5206840F465
:10281000E05020602878000703D5206840F460402D
:1028200020602068A96820F0F00008432060287824
:10283000C0072DD0304968680839012812D0022815
:1028400013D0032811D00968890700292DDA2168DF
:1028500021F0030101432160FFF7E4FE814641F2CC
:10286000883A0EE009688903EFE709688901ECE717
:10287000FFF7D8FEA0EB0901514502D90320BDE8BE
:10288000F0872068696800F00C00B0EB810FEFD191
:10289000D8F80010404601F00F01B14207D9077087
:1028A000006800F00F00B04201D00120E7E728786F
:1028B000400705D52068E96820F4E050084320600F
:1028C0002878000706D52068296920F4604040EA8E
:1028D000C100206000F03EF82168084AC1F30311EE
:1028E000515CC8400649086006480068FFF7C2FE10
:1028F0000020C4E7003C024008380240884B010831
:102900001C000020140000200148006870470000EF
:102910001C0000200448054900680968044AC1F306
:102920008221515CC84070471C00002008380240DA
:10293000984B01080448054900680968044AC1F336
:102940004231515CC84070471C00002008380240EA
:10295000984B0108154810B5006810F00C02144897
:1029600013D01449042A0FD0082A0ED10F4C241F6B
:102970002268236802F03F025B0207D52068C0F39B
:102980008810A0FB010106E0084610BD2168C1F3D4
:102990008811A1FB00010023FDF780FC2168C1F331
:1029A0000141491C4900B0FBF1F010BD083802405C
:1029B0000024F40040787D012DE9F84F04006ED02A
:1029C0002078DFF83C93C007A9F104054AD009F14B
:1029D00004000168C1F38101012908D00068C0F337
:1029E000810002280AD1D9F80000400206D52868E3
:1029F000800337D560680028E1D033E06068B0F527
:102A0000803F10D0B0F5A02F286810D020F480307F
:102A10002860286820F4802028606068A8B1FFF74B
:102A200001FE06460DE0286840F48030F4E740F4EB
:102A300080202860F7E700BFFFF7F4FD801B6428C3
:102A400073D828688003F7D50CE0FFF7EBFD064646
:102A500005E000BFFFF7E6FD801B6428F0D828687A
:102A60008003F7D42078DFF89C8280074FF0000ABB
:102A70003ED5A348001D016811F00C0F08D0006876
:102A8000C0F3810002280BD1D9F80000400207D41E
:102A90002868800716D5E068012800D112E02BE1F4
:102AA000E068B8B10120C8F80000FFF7BBFD06469A
:102AB00005E000BFFFF7B6FD801B0228C0D82868DC
:102AC0008007F7D52868216920F0F80040EAC100A6
:102AD00028600DE0C8F800A0FFF7A4FD064604E05A
:102AE000FFF7A0FD801B02281FD828688007F7D4B5
:102AF0002078000722D5824E83486169703671B113
:102B000001210160FFF78EFD074604E0FFF78AFD13
:102B1000C01B022809D830688007F7D50EE0C0F83E
:102B200000A0FFF77FFD074605E082E0FFF77AFD92
:102B3000C01B02287DD830688007F7D42078400772
:102B400068D5DFF8BCB100270BF13C0BDBF80000C7
:102B5000C0000BD4DBF8001041F08051CBF800101E
:102B6000DBF80000012700F080500090674E3068CD
:102B7000C00510D4306840F480703060FFF752FD1B
:102B8000009005E0FFF74EFD0099401A022850D84A
:102B90003068C005F6D55A4EA0686C3601280FD0B3
:102BA0000528306810D020F001003060306820F037
:102BB00004003060A068B8B1FFF734FD00900FE06A
:102BC000306840F00100F4E740F004003060F7E7BF
:102BD000FFF728FD0099411A41F28830814266D8FA
:102BE00030688007F4D50EE0FFF71CFD009007E089
:102BF000FFF718FD0099411A41F28830814256D8FA
:102C000030688007F4D42FB1DBF8001021F0805138
:102C1000CBF80010A069C8B33949091D0968C1F390
:102C2000810102294AD00228504607D0C8F8600026
:102C300000E03CE0FFF7F6FC04463BE04746C8F8FE
:102C40006000FFF7EFFC064605E000BFFFF7EAFC77
:102C5000801B02282BD828688001F7D4D4E907010B
:102C60000843A16A2A4A490802EB0141626A41EA23
:102C70008211084394F82C1040EA0161C9F8001051
:102C800001203866FFF7CEFC044606E036E000BFC0
:102C9000FFF7C8FC001B022809D828688001F7D577
:102CA0002CE000BFFFF7BEFC001B022802D9032066
:102CB000BDE8F88F28688001F4D41FE00128F7D020
:102CC000D9F80000E26900F48001914214D1226A2F
:102CD00000F03F0191420FD147F6C071626A014096
:102CE000914209D1A26A00F44031914204D1E16AD3
:102CF00000F07060884201D00120D9E70020D7E7BA
:102D00000438024000004742800E474200700040F5
:102D10000000FFFF4FF0E0210428086903D020F0F5
:102D200004000861704740F00400FAE710B5401E47
:102D3000B0F1807F01D3012010BD4FF0E02460612D
:102D40000F21601701F0FCFA0020A061072020612C
:102D5000002010BD7047000070B50268044610687E
:102D6000D168536910F00F0F52D003F0010501F440
:102D700090762E435FD0C20705D0CA0503D5E26B1B
:102D800042F00102E263420705D5DA0703D0E26BA5
:102D900042F00202E263820705D5DA0703D0E26B54
:102DA00042F00402E263020707D501F020022A4341
:102DB00003D0E26B42F00802E263E26B002A33D0F8
:102DC000800604D5880602D5204601F073F82068F5
:102DD0004069E16BC0F38010090700D428B3204696
:102DE00001F05AF82068416949061AD5416921F075
:102DF00040014161606BA0B11B490165606BFEF74A
:102E00002DFE002810D0606B016DBDE870400847B2
:102E1000830610D58B060ED52046BDE8704001F024
:102E200049B82046FFF796FF70BD2046FFF792FF96
:102E30000020E06370BD030606D50B0604D52046CE
:102E4000BDE8704001F016B94006F3D54806F1D54B
:102E5000D168204621F04001D160202184F839104A
:102E600000F0DAF870BD0000893E000870B504007B
:102E700004D094F83900002510B106E0012070BD9F
:102E800084F83850204600F023F8242084F83900D4
:102E90002068C16821F40051C160204601F056F855
:102EA0002068016921F4904101612068416921F0A5
:102EB0002A0141612068C16841F40051C160E563A5
:102EC000202084F8390084F83A00002070BD00000A
:102ED00010B586B0044614216846FDF75EFA1B491A
:102EE000206888422FD11A480021026842F010025F
:102EF0000260006800F01000059015481438026860
:102F000042F001020260006800F0010005904FF4F9
:102F1000C06000900220CDE901010320039007204A
:102F2000049069460B48FFF78DFA002211462520D0
:102F3000FFF7E6FB2520FFF7D5FB07480068C168CF
:102F400041F01001C16006B010BD0000001001404A
:102F50004438024000000240C800002070472DE9BC
:102F6000F843044690F839001F4616460D462028BF
:102F700050D1B5B1AEB194F8380001284AD0012043
:102F800084F838004FF00008C4F83C80212084F811
:102F90003900FFF747FBA6848146E68484F8388031
:102FA00026E00120BDE8F883E08C401EE084A068A4
:102FB0004B46B0F5805F4FF000024FF08001204695
:102FC000009703D001F087F8E8B90DE001F083F82D
:102FD000C8B928882168C0F308004860206908B192
:102FE0006D1C05E0AD1C03E0216815F8010B48607D
:102FF000E08C0028D8D14B46002240212046009783
:1030000001F069F808B10320CCE7202084F83900EA
:103010000020C7E70220C5E77047FEE72DE9FC4125
:10302000074615460E460024684600930BF064FBE5
:1030300060F30704C4F3C00030702009387001A9A0
:10304000009800F04DF90099019A014400910A445A
:10305000511A022904DB68460BF054FB288001203A
:10306000BDE8FC812DE9FC41074600240E462546BB
:10307000684600920BF040FB0146204661F30700D2
:103080000009022819D101A9009800F029F9009936
:1030900005460844019900900144081A02280CDBF7
:1030A00068460BF029FB60F3070404F00100387058
:1030B00068460BF021FB307001252846BDE8FC81F5
:1030C0002DE9FC5F8046DDE90EA00024CDE9000477
:1030D000994617460E462546DDF834B068460BF093
:1030E0000BFB60F30704200903282CD1C4F3C001B3
:1030F00088F80010C4F34100306004F0010038701B
:1031000001A9009800F0ECF80099054608440199DF
:1031100000904418224669460C980BF0FCFA90B1D6
:103120000098201A0FD43068002804DD68460BF0A0
:10313000E9FAA9F800000098211ACAF800100099CD
:103140000125CBF800102846BDE8FC9F2DE9FC477F
:1031500081460A98002400909A46164688462546DD
:1031600068460BF0C9FA0146204661F307000009E2
:10317000092826D101A9009800F0B2F80099054667
:103180000844019900904718381A022819DB68464C
:103190000BF0B8FAA9F8000034600EE03168414540
:1031A00002DD4FF0FF350CE068460BF0A5FA316800
:1031B0008B00491C31604AF803000098B842EDD3F7
:1031C00001252846BDE8FC872DE9F0470025ADF52F
:1031D000047D9846144682464FF4FA792E460F46EF
:1031E000012A1AD0022C18D000244046FDF7E0F83E
:1031F000CDE90580CDE90275CDE9005623460022D0
:103200000495494607A800F0C3F9011E09DC4FF0F8
:10321000FF300DF5047DBDE8F087FEF717FC06468C
:10322000E3E707A80FF0BAFE002802DA6FF001000A
:10323000EFE73CB16FF00205012C05D0022C0CD059
:10324000681FE6E70020E4E705220421504601F06C
:103250002DF8002808DB0120DBE705221146504647
:1032600001F024F8002801DA2846D2E7434600227C
:10327000494607A800F0DEF9010007D007A80FF0C3
:103280008DFE002805DA6FF00500C2E76FF003003D
:10329000BFE705221146504601F008F8002802DA7F
:1032A0006FF00600B5E70220B3E7F8B5012500246A
:1032B0000E4607460C60641C042C0FDC0121684696
:1032C000B84701280AD19DF80000316800F07F025C
:1032D00002FB0511ED0131600006ECD42046F8BD7B
:1032E000024A10600248FFF7E0BF0000BC00002067
:1032F000714D000810B503460020CA1701EB526457
:1033000024F07F02891ACAB2E111002902DD00BF50
:1033100042F080021A5400F10100EEDC10BD000002
:10332000401C802801DA401C7047B0F5804F01DA5C
:10333000801C70470349884201DAC01C7047001D99
:1033400070470000FFFF1F002DE9F8430024884666
:10335000164605464FF0FF3701210094B04701287B
:1033600016D169463046FFF7A0FF681C0099FFF7A9
:10337000C1FF0099401C0B18434509DC21B12844CA
:10338000B0470099884203D1287860F307042709E1
:103390003846BDE8F883F8B50024069E054600903F
:1033A000042901DAA01EF8BD62F3071463F3C30415
:1033B000062A24F0060000D1801CC1B2684610F035
:1033C00051FE02210098FFF795FF009908440090F4
:1033D0003146684610F04CFE0098401BF8BD0000D6
:1033E0002DE9F8430746009088461446002510460C
:1033F00000F082F88146FFF793FF404502DDA81EEA
:10340000BDE8F8832E46314666F307016846103161
:1034100010F028FE49460098FFF76CFF0099084419
:103420000090207A04281DD02FA1684610F006FED7
:103430000321684610F016FEA07E66F3070560F3D0
:103440004105E07E08B145F00405680707D594F80A
:103450003D0060F3C40594F83C0060F34515206C12
:1034600040B905E022A1684610F0E8FD0421E0E73C
:10347000A06C08B145F08005E06C08B9606D08B13A
:1034800045F040052946684610F0ECFD218B684662
:1034900010F0EEFD04F10C0168460EC910F0F7FDC6
:1034A000E07E68B12434684694E80E00243C10F0B5
:1034B000EEFD3034684694E80E00303C10F0E7FD35
:1034C000280605D504F1400168460EC910F0DFFD5D
:1034D000680605D54C34684694E80E0010F0D7FD18
:1034E0000098C01B8CE700004D51497364700000C8
:1034F0004D5154540000000070B50446007A002578
:10350000032802D0042802D002E00C2500E00A259E
:1035100004F10C0007C800F089FA0544E07EAD1CF8
:1035200078B1243494E80700243C00F07FFA30346A
:10353000064694E80700303C00F078FA3044054431
:103540002D1D206C08B9A16C29B1D4E9111200F02D
:103550006DFA0544AD1CE06C08B9616D29B1D4E980
:10356000141200F063FA0544AD1C284670BD0C220D
:1035700000F0C5B808B5002300920422FFF70BFF46
:1035800008BD08B5002300920722FFF704FF08BD1D
:103590002DE9FC5F1C46129ECDE90060DDF838B0D5
:1035A0009046DDF830A0DDE90F23894607465946ED
:1035B000204600F030F80546FFF7B2FE484503DD2F
:1035C0006FF00100BDE8FC9F302168F3C30164F394
:1035D00042016AF3000101A810F044FD2946019858
:1035E000FFF788FE019908440190DDE90F23594651
:1035F00001A810F04CFD002C03DD01A80D9910F07E
:1036000037FD324611990198FCF7A0FE019830442D
:103610000190C01BD6E770B50E46114604461A4607
:103620003046049D00F002FA2844801C002C00DD86
:10363000801C70BD08B5009313460622FFF7ABFE51
:1036400008BD00002DE9FF4F83B0064610A889464B
:1036500090E8800900249246254641463846009667
:1036600000F036F80190FFF75BFE484503DDA01E31
:1036700007B0BDE8F08F64F3070480346AF3C30435
:1036800024F00600801CC1B2684610F0EBFCDDE9B6
:103690000001FFF72FFE0099084400906846069944
:1036A00010F0E6FC0FE000BF05EB450108EB8100E0
:1036B00090E80E00684610F0EAFC1BF825106846FA
:1036C00010F0D0FC6D1CBD42EEDB0098801BCFE7F4
:1036D0002DE9F04102250F46064600240AE000BF0E
:1036E00004EB440007EB800007C800F09FF9054495
:1036F000641CED1CB442F3DB2846BDE8F08138B50C
:10370000002304460090022901DA981E38BD1946AC
:1037100063F3070162F30711684610F0A3FC002170
:103720000098FFF7E7FD009908440090001B38BDA2
:103730002DE9F041AAB0044600201D901E900223FE
:10374000CDE922301F90ADF870002590249004F050
:103750000703012000FA03F5E317642724AE04EB06
:10376000537306EBE306042C02D233782B433370F9
:1037700026921D9126A91DAA0090CDE90121DFF80E
:10378000A48000223946D8F8080083B2401CC8F84B
:10379000080003A8FFF756FF014603A80FF0FEFB41
:1037A000002804DA4FF0FF302AB0BDE8F08122A8EB
:1037B000002300901A4624A9601C07F035F888B150
:1037C000042C02D23078284202D16FF00200EBE7DD
:1037D000154A394603A8FFF7B7FD092805D06FF051
:1037E0000300E1E76FF00100DEE703A8CDE9000781
:1037F00020AB25AA01211CA8FFF7A8FC012802D0B4
:103800006FF00400D0E72098802806D0D8F8080090
:10381000BDF87010401E814202D06FF00500C3E772
:103820000020C1E7EC000010312F010810B5CCB02A
:10383000582225496846FCF789FD24A003904FF4DF
:103840009670ADF818002CA0109030A013900420B2
:103850008DF808000120C8248DF81A006A46214618
:1038600016A8FFF7BDFD014616A80FF097FB324AD8
:10387000214616A8FFF768FD022808D02FA000F007
:103880003BFD32A000F038FD02204CB010BD2346B5
:1038900016AA49A94AA8FFF7E5FB012802D19DF81D
:1038A000240148B125A000F027FD9DF824112CA08B
:1038B00000F022FD0120E8E720A000F01DFD2FA070
:1038C00000F01AFD0020E0E7784D01084634323957
:1038D0003030317C7365637572656D6F64653D333F
:1038E0002C7369676E6D6574686F643D686D6163A4
:1038F000736861317C000000463432393030312643
:10390000613176594D435337454B37003845324185
:1039100046363832304632463144353139444637FE
:1039200046364437364143373638453642304436DA
:103930003536323500000000312F01080D0A5B4496
:10394000454255475D203E3E200000004D515454F5
:10395000C1ACBDD3CEDECFECD3A6A3A10A0000003C
:10396000CEDEB7A8C1ACBDD3A3ACB4EDCEF3B4FAF0
:10397000C2EBCAC73A202564A3A10A00D3C3BBA7E0
:10398000C3FBD3EBC3DCD4BFD1E9D6A4B3C9B9A67A
:10399000A3AC4D515454C1ACBDD3B3C9B9A6A3A176
:1039A0000A000000F0B5B7B00446052034900020AE
:1039B0003590339004F0070001258540E017C827B3
:1039C00033A904EB507001EBE006042C02D23078EE
:1039D00028433070394601A8FFF7C9FD014601A808
:1039E0000FF0DCFA34A8002300901A4633A9601CBB
:1039F00006F01AFF90B1042C02D23078284203D18D
:103A00006FF0010037B0F0BD074A394601A8FFF753
:103A10009BFC0D2805D06FF00200F3E74FF0FF305C
:103A2000F0E70020EEE70000312F010810B510B1DB
:103A3000FCF7BEFC0146084610BD00002DE9F04130
:103A400086B014216846FCF7A8FC1F4800240168D2
:103A500041F004010160016801F004010591016871
:103A600041F080010160016801F080010591016869
:103A700041F0010101600068DFF8508000F00100B2
:103A80004FF4E0570590012239464046FEF7C4FD49
:103A90004FF4005002258DE8310069460C48FEF7CE
:103AA000D1FC0126009669460A48CDE90145FEF79A
:103AB000C9FCCDE9007669464046CDE90245FEF7EE
:103AC000C1FC06B0BDE8F08130380240001C024065
:103AD00000080240000002400C4810B50A4901608D
:103AE0004FF4E1314160002181600C22C160C0E9E6
:103AF00004128161C161FFF7B9F9002803D0BDE864
:103B00001040FDF7A1BF10BD00100140C80000200B
:103B1000FEE7FEE7F8B5044632A000F0EDFB35A065
:103B200000F0EAFB204601F091FA074636A101F0C9
:103B30007FFA064636A101F07BFA384D384CA8B121
:103B40004069291528B100222846FEF765FD0120AD
:103B500004E001222846FEF75FFD022000990023C1
:103B60001A4608606946206810F0DAFC2DA130463C
:103B700001F05EFAB0B140694FF4006128B1002253
:103B80002846FEF749FD032004E001222846FEF7FF
:103B900043FD0420009900231A4608606946206806
:103BA00010F0BEFC22A1304601F042FAB0B14069EB
:103BB0004FF4805128B100222846FEF72DFD052044
:103BC00004E001222846FEF727FD06200099002385
:103BD0001A4608606946206810F0A2FC384601F0D9
:103BE00003FAF8BD0D0A5B44454255475D203E3E51
:103BF00020000000BFAACABCBDE2CEF64A534F4E19
:103C0000CAFDBEDD00000000706172616D730000CE
:103C1000706F77657273746174650000001C0240F8
:103C20000C000020506F77657253776974636800E9
:103C30004C45445377697463680000002DE9FF41E7
:103C40001746884604462BB30020CDE90230019088
:103C500004F0070001258540E01701A904EB50702E
:103C600001EBE006042C02D230782843307002A821
:103C7000002300901A46601C06F0D6FD4FF0FF317D
:103C800020B1042C02D23078284203D1084604B077
:103C9000BDE8F081024A39464046FFF755FBF6E79A
:103CA000312F010810B5FEF7C3FC10F0C3FD012849
:103CB00003D0BDE8104010F08BBA10BD30B52648D7
:103CC00093B00025016841F080510160006800F068
:103CD000805011902148016841F440410160006822
:103CE000022400F440401190012000900004019053
:103CF0008001CDE90640192008904FF4B470CDE959
:103D0000090407200B906846FEF756FE00B1FEE757
:103D1000FEF728FD0CA90F2081E831004FF4A050D8
:103D20000F904FF48050109005210CA8FEF752FD23
:103D300000B1FEE7FEF7E8FD4FF47A71B0FBF1F059
:103D4000FEF7F4FF0420FEF7E5FF00221146501EA7
:103D5000FEF7D6FC13B030BD403802400070004082
:103D60000548016841F47001016003494FF00060AB
:103D7000803908607047000088ED00E03EB5002102
:103D800008460EF087FF204D0020291D286008609E
:103D9000091D1F4A0860CDE900021C4905F108030E
:103DA00002911A1F111F1B4808F082FC194808F0E5
:103DB00001FE184C94F831004007204602D508F067
:103DC00021FE01E008F0FCFD134800F095FA1148CF
:103DD00002F09AFA18B111A000F08EFA04E016A0D1
:103DE000FAE701200FF060FF606829688842F8D088
:103DF000010E0091C0F30743C0F30722C1B215A022
:103E000000F07AFA3EBD0000D8000010912D0108A4
:103E1000E9780008505B0010F44F01086C77697076
:103E2000206468637020696E6974206661696C2E15
:103E30002E2E0A0A000000006C7769702064686307
:103E40007020696E697420737563636573732E2EB9
:103E50002E0A0A00B1BEB5D84950B5D8D6B7CAC7E0
:103E60003A25642E25642E25642E25640A0A000056
:103E70004FF47A7420460FF017FFFBE74FF47A7483
:103E800020460FF011FFFBE710B5806B0021C185C4
:103E9000C184FEF75FFF10BD0168CA6822F490720A
:103EA000CA6001684A6922F001024A61202180F853
:103EB0003A10704710B590F83A10222901D002202C
:103EC00010BD8168B1F5805F11D0016900290168DA
:103ED0001FD0496801F07F03816A4A1C82620B701F
:103EE000C18D491E0904090CC18518D02BE0026957
:103EF000816A002A0268526805D0D2B20A80816ABB
:103F0000491C8162ECE7C2F308020A80816A891CBD
:103F1000F7E74A68816A4B1C83620A70E0E7016830
:103F2000CA6822F02002CA600168CA6822F480725E
:103F3000CA6001684A6922F001024A61202180F8C2
:103F40003A10FFF70BF8002010BD00002DE9F041FA
:103F5000044600680169E26821F44051114301619F
:103F60002169A068E2690843616911430843216837
:103F7000CA6849F20C639A430243CA6020684169E7
:103F8000A26921F4407111434161E0691927642558
:103F90003226B0F5004F354A354920684FF0000809
:103FA00006D0884201D0904236D1FEF7C3FC35E0FE
:103FB000884201D0904202D1FEF7BCFC01E0FEF73E
:103FC000A9FC61684A18A0FB070148EB0803FCF74D
:103FD00065F90146B0FBF5F00201B1FBF5F06FF0B9
:103FE0001803584301EB800006EBC000B0FBF5F06E
:103FF00000F0F80002EB4002B1FBF5F0584301EB92
:10400000800006EBC000B0FBF5F000F0070021686F
:1040100010448860BDE8F081FEF77CFC61688B0F7E
:104020008A00A0FB0701FCF739F90146B0FBF5F067
:104030006FF01802504301EB800006EB0010B0FB5C
:10404000F5F000F0F002B1FBF5F002EB0012B1FB6D
:10405000F5F06FF01803584301EB800006EB0010F9
:10406000B0FBF5F000F00F00D1E7000000140140B4
:104070000010014090F83910212901D0022070472A
:104080008168B1F5805F016A0BD04A1C0262026848
:1040900009785160C18C491E0904090CC1840ED0F5
:1040A00017E009880268C1F308015160016900291D
:1040B000016A02D0491C0162ECE7891CFBE7016838
:1040C000CA6822F08002CA600068C16841F04001FD
:1040D000C160002070472DE9F041984617460E4612
:1040E0000446069D1DE0681C1BD02DB1FEF79AFA10
:1040F000A0EB0800A84214D92068C16821F4D0714F
:10410000C1602068416921F001014161202084F8EB
:10411000390084F83A00002084F838000320BDE814
:10412000F0812068006836EA000004D00020B84220
:10413000D9D00020F3E70120F9E7000008B50648D0
:10414000FEF70AFE044800680168C943C90602D4A4
:1041500001684068009008BDC8000020FEE700002C
:1041600010B504461EA000F0C7F821A000F0C4F866
:10417000207840B101280BD0022819A02CD000F0E3
:10418000BBF823A008E016A000F0B6F826A003E0D4
:1041900013A000F0B1F82AA000F0AEF810A000F0D3
:1041A000ABF804F5FE712CA000F0A6F80CA000F00E
:1041B000A3F8611C2DA000F09FF809A000F09CF866
:1041C0002FA0D4F8F81100F097F8601CFFF7A2FCBC
:1041D000002084F8300210BD00F08EF82DA0DBE73F
:1041E0000D0A5B44454255475D203E3E20000000DD
:1041F0002A2A2A2A2ACAD5B5BDB6A9D4C4B5C4CF9D
:10420000FBCFA2A3A12A2A2A2A2A2A0A00000000F8
:104210004D5154543E3EB4EDCEF3B5C4CFFBCFA2C6
:10422000D6CAC1BF0A0000004D5154543E3ECFFBD8
:10423000CFA2D6CAC1BFA3BA516F53300A00000043
:104240004D5154543E3ECFFBCFA2D6CAC1BFA3BAF4
:10425000516F53310A0000004D5154543E3ECFFB84
:10426000CFA2D6F7CCE2A3BA25730A004D5154541D
:104270003E3ECFFBCFA2C0E0C8DDA3BA25730A0043
:104280004D5154543E3ECFFBCFA2B3A4B6C8A3BAFF
:1042900025640A004D5154543E3ECFFBCFA2D6CAEE
:1042A000C1BFA3BA516F53320A0000002DE9F04399
:1042B000FDB090460E46814600254FF4FA77022362
:1042C0003A4669464846FFF7B9FC0446401C04D00C
:1042D000E0B23A46694607F0F1F96D1CEDB2B4421E
:1042E00001D04545EBD3B44203D100207DB0BDE8F9
:1042F000F0834FF0FF30F9E70FB4054B10B503A979
:10430000044A029800F01AF910BC5DF814FB000092
:104310009D7A0008C40000200FB4084B10B504A912
:1043200002AA039800F00AF9044602A9002000F04E
:104330009CFC204610BC5DF814FB00006B4C000890
:104340000907090E002804DB00F1E02080F80014C2
:10435000704700F00F0000F1E02080F8141D704756
:1043600000B583B09FED060B0A4601468DED000BAC
:104370006846FCF7F8FA9DED000B03B000BD0000A5
:10438000000000000000000002E008C8121F08C181
:10439000002AFAD170477047002001E001C1121FC6
:1043A000002AFBD1704700002DE9FF5F82B0002199
:1043B000DDE90430020DDDF840B0034318D044F6C7
:1043C0001050A2F2FF3242431514119801281FD059
:1043D000A5EB0B00401C5FEA000A4FF000064E4FB1
:1043E000DFF83891B046504615D5CAF1000413E005
:1043F000119801244AA3012801D16FEA0B01029808
:10440000119AC0E90031C0E9024206B0BDE8F09F50
:10441000CBF10000DFE704460021404A491842EB97
:104420000450CDE9001012E0E00707D032463B46C9
:1044300040464946FCF7CEFB8046894632463B461D
:1044400010461946FCF7C6FB06460F466410002CC2
:10445000EAD1DDE90401DDE90023BAF1000F06DA53
:10446000FCF7B8FB42464B46FCF7B4FB05E0FCF713
:1044700023FC42464B46FCF71FFC04460E46002236
:10448000284BFCF7D3F903D84FF0FF30014607E083
:104490000022254B20463146FCF7F5FAFCF787FC55
:1044A000102409E0002C0ADB0A220023FBF7F6FEA9
:1044B000039B30321A55641E50EA0102F2D1641C8B
:1044C000039AC4F111031444119A012A03D0012262
:1044D00008430DD10AE0084304D000204FF0110B2F
:1044E000119072E7A3EB0B056D1E0DE05B4504DD3B
:1044F0004FF0000205F1010504E003DA4FF000027D
:10450000A5F10105002AECD002981199C0E9023109
:10451000C0E9004579E70000000014400000F03FCA
:10452000300000000000F0430000E03F30380A286F
:1045300001D2012070470020704700002DE9FF4F95
:1045400095B09B468946064600250FE2252877D17F
:1045500000242746F84A0121059400E0044316F898
:10456000013F203B01FA03F01042F7D130782A28AE
:1045700011D06FF02F033078A0F13002092A16D83D
:10458000059A44F0020402EB820203EB420210445B
:10459000761C0590EFE759F8042B0592002A03DA00
:1045A000504244F40054059044F00204761C3078E4
:1045B0002E2816D116F8010F44F004042A280DD035
:1045C0006FF02F023078A0F13003092B09D807EBE8
:1045D000870302EB4303C718761CF3E759F8047B03
:1045E000761C30786C280FD006DC4C2817D0682851
:1045F0000DD06A2814D104E0742810D07A280FD185
:104600000DE044F400140AE044F4801401E044F4A2
:1046100040147278824202D104F58014761C761C14
:10462000307866280BD013DC582877D009DC0028B6
:1046300075D04528F6D04628F4D047281AD19DE1F8
:1046400018E0632835D0642879D0652812D195E127
:10465000702873D008DC6728F1D069286FD06E28E5
:104660000DD06F2806D1B5E073282CD0752875D0F1
:10467000782874D05A46179990476D1C75E1C4F399
:104680000250022809D003280DD0D9F800100428C0
:104690000DD00D6009F1040967E1D9F80010EA179F
:1046A000C1E90052F6E7D9F800100D80F2E70D706D
:1046B000F0E719F8041B8DF8001000208DF80100B8
:1046C000EA46012003E059F804AB4FF0FF306107E0
:1046D0004FF0000102D40DE008F101018846B94213
:1046E0000FDA8045F8DB1AF808100029F4D108E049
:1046F00008F1010188468142FADB1AF80810002906
:10470000F6D105985B46A0EB080721463846179A74
:1047100000F094FA284400EB080507E04DE029E199
:104720000DE01AF8010B5A4617999047B8F10108A5
:10473000F7D25B4621463846179A13E142E00A2237
:104740000092C4F302524FF0000A022A08D059F82E
:1047500004CB032A4FEAEC710AD00DE029E02AE0ED
:1047600009F1070121F00702F2E802C1914609E0D0
:104770000FFA8CFC4FEAEC71042A03D14FFA8CFC3F
:104780004FEAEC71002907DA0A460021DCF1000C3F
:1047900061EB02012D2202E0220504D52B228DF8C7
:1047A0000420012203E0E20701D02022F7E790462F
:1047B00059E00A2102E010220DE010214FF0000A1A
:1047C00000910BE010224FF0000A44F00404082787
:1047D000009203E008224FF0000A0092C4F3025254
:1047E000022A05D059F804CB0021032A08D009E099
:1047F00009F1070121F00702F2E802C1914605E044
:104800001FFA8CFC042A01D10CF0FF0C4FF00008B9
:10481000220728D5702806D0009B83F0100353EAA6
:104820000A0305D00EE040228DF80420012208E0A2
:104830005CEA010206D030228DF804208DF80500D4
:1048400002229046009B83F0080353EA0A030AD130
:104850005CEA010201D1620705D530228DF80420FF
:104860004FF001087F1E582804D034A003900EA8F2
:1048700002900DE036A0F9E753466046009AFBF738
:104880000DFD84460398825C0298401E02900270DF
:104890005CEA0100F0D1029806A9081A00F1200A8A
:1048A000600702D524F4803400E00127574502DD7B
:1048B000A7EB0A0000E0002000EB0A010090059839
:1048C0004144401A0590E00306D45B462146179AFE
:1048D000059800F0B3F90544002706E001A85A4600
:1048E000C05D179990476D1C7F1C4745F6DBE003C0
:1048F0000CD55B462146179A059800F09FF90544B0
:1049000004E030205A46179990476D1C0099481EC4
:1049100000900029F5DC08E0029802995A460078D8
:10492000491C0291179990476D1CBAF10001AAF138
:10493000010AF1DC65E10000092801003031323361
:1049400034353637383961626364656600000000CB
:1049500030313233343536373839414243444546B5
:104960000000000000F058F90544761C307800285B
:104970007FF4ECAD19B02846BDE8F08F620700D493
:10498000062709F1070222F0070CFCE80223E146A2
:1049900003F000485FEA080C02D00FF2702C0DE023
:1049A0005FEA045C02D50FF2682C07E05FEAC47C82
:1049B00002D00FF2602C01E0AFF2700C4FF0FF3824
:1049C00023F00043CDF850C065280CD006DC452804
:1049D00009D046281DD047283DD13DE0662818D093
:1049E00067287ED138E00021112F01DB112000E083
:1049F000781CCDE9000106A90EA8FFF7D5FCDDE97A
:104A00000F010E9A03910021009207F1010A04910F
:104A10004DE04FF000400097CDE9011006A90EA827
:104A2000FFF7C2FCDDE90F0203920E9B11990022F1
:104A3000DDF80CA00093049211B9791C00EB010A77
:104A4000B7EB0A0004D4C0F1FF3007F1010A04906B
:104A5000AAEB0700019044E0012F00DA01270021B2
:104A6000112F01DD112000E03846CDE9000106A933
:104A70000EA8FFF799FCDDE90F010E9A03910021C2
:104A800004910092BA4621070CD40399514500DAEB
:104A90008A46BAF1010F05DD009AAAF10101515CC5
:104AA000302908D0B84202DA10F1040F06DA0121E9
:104AB000CDE9011015E0AAF10101E9E7002805DCC4
:104AC000049901440491AAEB000102E0411C514504
:104AD00000DD8A460499401A401C01904FF00040C6
:104AE0000290200704D40198504501DBCDF80480E2
:104AF00000208DF84F0002980DF14F07B0F1004FE4
:104B000025D02B200E9002984FF0020800280CDAD6
:104B1000404202902D200E9007E00A210298FBF7F8
:104B20009DFE3031029007F8011DB8F10001A8F197
:104B30000108F2DC02980028EFD1791E0E98087067
:104B4000307800F0200040F0450007F8020D12A870
:104B5000C01B00F107081498007800B1012000EB99
:104B60000A01019801EBE07105984144401A401E8A
:104B70000590E00306D45B462146179A059800F09D
:104B80005DF805441498007818B15A461799904773
:104B90006D1CE00324D55B462146179A059800F06A
:104BA0004DF805441CE00498002807DBDDE903010B
:104BB000884203DD0098405C179901E01799302086
:104BC0005A469047049805F10105401C049001984D
:104BD000401E019004D12E205A46179990476D1C13
:104BE000BAF10001AAF1010ADDDC05E017F8010BBA
:104BF0005A46179990476D1CB8F10001A8F10108B9
:104C0000F4DC5B462146179A0598ABE62D000000C0
:104C10002B000000200000002DE9F0410446002593
:104C20001E461746880404D405E039462020B047C4
:104C30006D1C641EF9D52846BDE8F0812DE9F041D0
:104C4000044600251E469046C80301D5302700E0E3
:104C50002027880404D505E041463846B0476D1C3E
:104C6000641EF9D52846BDE8F0810A68531C0B6024
:104C70001070704719B110B1826812B104E00020C1
:104C80007047816005E0024610680028FBD1116082
:104C90004A60012070472DE9F0415FEA000806985C
:104CA0001E4614460D461ED0EDB1E4B118B1E068C1
:104CB00040F4007708E01946284600F043FA050062
:104CC00011D0E06820F40077A089800503D4206A21
:104CD00008B171688847E760214640462562BDE813
:104CE000F041FFF7C7BF0020BDE8F0812DE9F0419A
:104CF000884607460024154D09F016FF05EB041100
:104D0000096841B109F032FF641C042CF4DB4FF058
:104D1000FF30BDE8F08105EB04152F6009F026FF98
:104D200000266E60A87B10B109A0FFF7E5FA2E817E
:104D300038780121B1EB101F02D15FEA080000D0E2
:104D400001206881AE812046E3E7000038F10020B1
:104D5000736F636B6574735B695D2E73656C6563FC
:104D6000745F77616974696E67203D3D2030000093
:104D700030B5044606480023026803E012F8015BE0
:104D800025705B1C8B42F9DB0260084630BD0000D9
:104D9000BC00002010B588B103687BB1426881680F
:104DA000914206D25C5C202C03D8491C816000280B
:104DB000F5D1914201D1491E816010BD002010BD86
:104DC000F8B50C46054600F043F806460020009072
:104DD000064B324621462846FFF75DFF0028304645
:104DE00002D100F001F90020F8BD00000001001020
:104DF000F8B50C46054600F067F80646002000901E
:104E0000064B324621462846FFF745FF002830462C
:104E100002D100F0E9F80020F8BD00000001001008
:104E2000F8B505460C46104600F05AF80646002034
:104E30000090064B324621462846FFF72CFF0028FB
:104E4000304602D100F0D0F80020F8BD000100107B
:104E500010B518482DED028BB0EE408AF0EE608A56
:104E600000F0E9F8040020D00820E0609FED120B6C
:104E700084ED068B53EC102B51EC180BFBF7D6FC92
:104E800002D86FF000400FE09FED0D0B51EC180BB6
:104E900053EC102BFBF7B2FC02D84FF0004003E0BC
:104EA00051EC180BFBF78AFC60612046BDEC028BCD
:104EB00010BD0000000100100000C0FFFFFFDF4137
:104EC000000000000000E0C110B5044800F0B3F895
:104ED000002801D04021C16010BD00000001001079
:104EE00070B50546094800F0A6F8040007D0102068
:104EF000E0600649284600F025F9206108B1204607
:104F000070BD204600F070F8002070BD0001001058
:104F100070B505462DED028BB0EE408AF0EE608A4A
:104F2000FFF7D2FF154C002820601ED014A21BA151
:104F3000FFF776FF1BA21EA12068FFF771FF1DA1DE
:104F40002068FFF755FF06461CA21EA12068FFF748
:104F500067FFB0EE480AF0EE680A29463046FFF7D0
:104F60002FFF2068BDEC028B70BD18A0FFF7C4F9BD
:104F70001AA0FFF7C1F90020F4E70000C0000020EC
:104F80007468696E672E6576656E742E70726F70C8
:104F9000657274792E706F73740000006D657468AB
:104FA0006F64000036333237333933343800000051
:104FB00069640000706172616D730000312E302EE3
:104FC0003000000076657273696F6E000D0A5B44F5
:104FD000454255475D203E3E20000000B4B4BDA8C8
:104FE000CAA7B0DC0000000070B504460F4E19E0FF
:104FF000A0892568C0050AD4A06820B1FFF7F4FF96
:10500000A089C00503D4206908B171688847A089C8
:10501000800503D4206A08B171688847716820460A
:1050200088472C46002CE3D170BD00000001001021
:10503000002202F05DBD10B50168282088470400F9
:1050400002D02821FBF7A9F9204610BD0022114605
:10505000AFF300802DE9F04788B00D460446924634
:105060001C216846FBF799F931480026002C0660A0
:1050700046605AD020460094FBF79AF9401CDFF8AE
:10508000B090CDE90106D9E90212D9F810000491D7
:10509000CDE90520B04609F10800FFF7CCFF070075
:1050A0002BD000986E4608B1029808B100260BE09C
:1050B0000198042808D903221EA10098FBF7A3F940
:1050C00010B90298C01C02903046FFF763FE0146FB
:1050D000384607F0C5FE68B1BAF1000F14D0684633
:1050E000FFF758FEDDE90101814203D202990098E1
:1050F000405C48B13846FFF777FFDDE901214046C3
:1051000091420AD208460BE01DB10299009808446A
:105110002860384608B0BDE8F087111E00D0481E50
:105120000DB121182960C9E900400020F2E7000014
:10513000F8000010EFBBBF00014A012108F054BD88
:105140000001001070B50E4605000DD0FBF730F9D8
:10515000401C316804468847060005D0224629468F
:10516000FBF7F4F8304670BD002070BD2DE9F0412A
:10517000064608780D4610701446501CD5E90312F7
:10518000FBF7E4F82969601C00270F542869C4F86C
:10519000F801D6E9012104F5FE708046FBF7D6F848
:1051A000716801F80870E888A4F82E02012084F8DC
:1051B0003002BDE8F081000058B1026A002A0BD02D
:1051C0005379082B08D10968D269914204D100F0C3
:1051D000E7B902A0FFF790B8704700006E657469E8
:1051E0006620213D204E554C4C0000002DE9FC412D
:1051F00005001AD02C6AD4B100236382A16A4FF053
:105200003C07B1F1FF3F4FF480364FF001024FF6FB
:10521000FF7012D01E31B1FBF7F1B14200D301464D
:105220000904090CA18207D007E029A000E02FA003
:10523000FFF762F8BDE8FC81A282E16AB1F1FF3FAD
:105240000CD01E31B1FBF7F1B14200D30146090485
:10525000090C618100D162816189E181216BB1F129
:10526000FF3F0CD01E31B1FBF7F1B14200D3014634
:105270000904090CA18100D1A281A189218262893E
:10528000A1898A4201D301B16381E17909B1206A20
:1052900008E0217F7F2901D8FF2003E0C02901D346
:1052A0006FF07F400090606A019028B9E069009932
:1052B000084040F0807001900A21204601F01CF85F
:1052C00001AB6A4604F11C01284607F043FBB1E735
:1052D000646863705F62696E643A206E65746966C3
:1052E00020213D204E554C4C000000006468637046
:1052F0005F62696E643A206468637020213D204ECD
:10530000554C4C0070B5046A05460821204600F053
:10531000F3FF002204F11C01284602F077F8A0797F
:10532000FF2801D2401CA0714FF4FA7140F2E7301F
:10533000B0FBF1F0208170BD70B5294804684CE0E5
:10534000206AA0B3417991B3818A69B1418A491C2D
:1053500089B24182828A914206D1204600F03AFE0B
:10536000204600F0D1FF37E0018A19B14A1E0282BF
:10537000012906D0C189D1B14A1EC281012917D0A5
:105380002AE0256A20466979012905D00A2903D037
:10539000052901D004291FD100F0A0FCA88A698A40
:1053A000401A022818DB00EBD0704008288213E076
:1053B000256A20466979012903D00A2901D00529E7
:1053C0000AD100F065FEA889698A401A022803DB29
:1053D00000EBD0704008E8812468002CB0D170BD8B
:1053E000B00000102DE9F047994616460D4607001B
:1053F00017D0002D17D04FF49A744FF42072214625
:10540000362007F0DFFDB0F1000810D0B8F80A0030
:10541000A246504502D22CA0FEF76EFF032E0BD100
:1054200007E039A000E040A0FEF766FF0020BDE8DD
:10543000F0876879032808D1A879434C08B1A0689F
:1054400002E0FAF771FFA0602860D8F804405146E6
:105450002046FAF7A2FF01202070607097F8300014
:10546000A070286804F0C4F96060082E0AD0042EE9
:1054700008D0072E06D0032E06D16879052801D062
:10548000042801D17868E060002039182218401CF7
:1054900091F82A1080B211770628F6D32B48C4F869
:1054A000EC0004F1F001012335220C46002000F04D
:1054B000D9F93246214600F0EDF9B9F1000F01D0DB
:1054C000A9F800004046B2E7646863705F637265E4
:1054D0006174655F6D73673A20636865636B207400
:1054E00068617420666972737420706275662063E7
:1054F000616E20686F6C64207374727563742064CD
:105500006863705F6D736700646863705F63726582
:105510006174655F6D73673A206E657469662021FA
:105520003D204E554C4C0000646863705F637265AB
:105530006174655F6D73673A206468637020213D14
:10554000204E554C4C0000006400001063825363F1
:1055500010B5094C207810B908A0FEF7CDFE2078D0
:10556000401E10F0FF00207004D1E0680DF062FFD3
:105570000020E06010BD00006400001064686370EB
:105580005F7063625F726566636F756E7428293A37
:1055900020726566636F756E74206572726F72003B
:1055A000FEB5046A06460C21204600F0A5FE02ABBB
:1055B000042221463046FFF715FF050028D0696810
:1055C0000423F03132220F46BDF8080000F04AF9FA
:1055D000ADF80800E06904F00BF902463946BDF861
:1055E000080000F081F9ADF808002A46394600F0BD
:1055F000E3F90F484323CDE900600F480D4A2946DF
:10560000C0680EF035F80646284607F091FF01E025
:105610004FF0FF36A079FF2801D2401CA07142F65E
:1056200003104FF4FA71B0FBF1F020813046FEBD5B
:10563000E84B0108EC4B0108640000102DE9FE4F17
:10564000046A07464FF0000906212046C4F81C9062
:1056500000F052FE02AB012221463846FFF7C2FE9F
:1056600006003BD071680223F0318A463922554644
:10567000BDF8080000F0F6F8ADF808003A8D2946AC
:1056800000F06AF9ADF8080004233722294600F03B
:10569000E9F8DFF88480ADF808000025514618F8D5
:1056A0000520BDF8080000F0F5F86D1CEDB2ADF86E
:1056B0000800042DF2D33246514680B200F07CF946
:1056C00016484323CDE900701348154A401E314661
:1056D000C0680DF0CDFF304607F02AFFA079FF2803
:1056E00001D2401CA071C1B2062902D2012088401B
:1056F00000E03C2000EB4001C1EBC0104FF6FF7111
:1057000001EAC0004FF4FA7100F2F310B0FBF1F0BF
:1057100020814846BDE8FE8F65000010E84B010877
:10572000EC4B010870B50B48002504680EE0206AB8
:1057300058B10189012903D9A1F10101018104E0D6
:1057400003D10581204600F049FE2468002CEED1EB
:1057500070BD0000B0000010F8B5046A00201F4DB5
:1057600020626062EA78A5F128060AB1F268A262B6
:105770002A790AB1326901E0A26A5208E2626A79C2
:105780000AB1726903E0A26AC2EBC202D2082263C4
:105790000969E161A97921B1B06904F029F82062B1
:1057A0000120E071E87918B1F06904F021F8606235
:1057B00000240DE006EB8400006A04F019F8009064
:1057C0006946204601F060FA641CE4B2022C03D260
:1057D0002819007A0028EDD1F8BD0000A0F10020C2
:1057E00010B5134C2078D0B9E06810B111A0FEF7C5
:1057F00083FD0DF0FBFDE060B0B1417A442241F041
:105800002001417215490DF0E7FB43221349E0687E
:105810000DF04CFC00221249E0680DF0F7FD2078F5
:10582000401C2070002010BD4FF0FF3010BD000064
:1058300064000010646863705F696E635F70636228
:105840005F726566636F756E7428293A206D656DA9
:105850006F7279206C65616B00000000E84B0108F5
:10586000B55E00082DE9F0411D4604462844801C21
:1058700017460E46442802D90548FEF73DFD375528
:10588000641CA0B23554401C80B2BDE8F081000019
:10589000584E010870B515460E460446442802D3FA
:1058A00003A0FEF729FD3555641CA0B270BD0000B1
:1058B000646863705F6F7074696F6E5F627974653E
:1058C0003A206F7074696F6E735F6F75745F6C658B
:1058D0006E203C20444843505F4F5054494F4E5334
:1058E0005F4C454E0000000070B50546001D144693
:1058F0000E46442802D909A0FEF7FEFC200E705582
:105900006D1CA8B2210C3154401C80B2210A3154C4
:10591000401C80B23454401C80B270BD6468637017
:105920005F6F7074696F6E5F6C6F6E673A206F7037
:1059300074696F6E735F6F75745F6C656E202B207A
:1059400034203C3D20444843505F4F5054494F4E13
:10595000535F4C454E00000070B50446801C154650
:105960000E46442802D905A0FEF7C6FC280A305589
:10597000641CA0B23554401C80B270BD6468637072
:105980005F6F7074696F6E5F73686F72743A206FC7
:105990007074696F6E735F6F75745F6C656E202BCA
:1059A0002032203C3D20444843505F4F5054494FE3
:1059B0004E535F4C454E0000FF230B54401C80B2F9
:1059C000002302E00B54401C80B24428FAD3F0308C
:1059D00081B2104607F062BE2DE9F04F85B08246D5
:1059E000002004900A219248FAF7D7FCBAF80A007E
:1059F0002C2816D3BAF808008D4F4FF0F009564600
:105A000007E000BFA9EB0102401A36681FFA82F9CD
:105A100080B236B171894A464945F3D9144602909D
:105A2000D7E06FF0010005B0BDE8F08FA01C80B298
:105A30004FF0FF350190A042F3D37389621C93426B
:105A400003D903982044407803E0306808B14068E7
:105A50000078342980463CD00BDC03291FD003DCBE
:105A6000A1B101290DD114E0062920D0332908D194
:105A70002BE035294AD036294CD03A294ED03B2943
:105A800050D04FF00008002950D02CE00020804674
:105A9000F9E7042801D067A09FE00625F3E74FF05F
:105AA0000408042801D266A097E00725EBE78307E6
:105AB00001D068A091E0082801D2434600E0082305
:105AC00098464045EFD30825DDE70428E3D10325B8
:105AD000D9E7012801D063A07FE0B9F1F00F01D030
